:020000040800F2
:10400000E01800201DC00008E94E0008EB4E000833
:10401000ED4E0008EF4E0008F14E000800000000D1
:10402000000000000000000000000000F34E000847
:10403000F54E000800000000F74E0008F94E000899
:1040400037C0000837C0000837C0000837C0000874
:1040500037C0000837C0000837C0000837C0000864
:1040600037C0000837C0000837C0000837C0000854
:1040700037C0000837C0000837C0000837C0000844
:1040800037C0000837C0000837C0000837C0000834
:1040900037C0000837C0000837C0000837C0000824
:1040A00037C0000837C0000837C0000837C0000814
:1040B00037C0000837C0000837C0000837C0000804
:1040C00037C0000837C0000837C0000837C00008F4
:1040D00037C0000837C0000837C0000837C00008E4
:1040E000FD4E000837C0000837C0000800F002F895
:1040F00000F067F80AA090E8000C82448344AAF11B
:104100000107DA4501D100F05CF8AFF2090EBAE818
:104110000F0013F0010F18BFFB1A43F001031847FB
:10412000B8A40000D8A400000A444FF0000C10F816
:10413000013B13F0070408BF10F8014B1D1108BF25
:1041400010F8015B641E05D010F8016B641E01F8C5
:10415000016BF9D113F0080F1EBF10F8014BAD1C15
:104160000C1B09D16D1E58BF01F801CBFAD505E033
:1041700014F8016B01F8016B6D1EF9D59142D6D38D
:10418000704700000023002400250026103A28BFB5
:1041900078C1FBD8520728BF30C148BF0B607047B9
:1041A000642908F05582632908F04B84732908F0CC
:1041B0005084002070471FB509F05BF91FBD10B592
:1041C00010BD08F071FC1146FFF7F5FF00F04CFD43
:1041D00008F08FFC03B4FFF7F2FF03BC08F098FC73
:1041E0002DE9F0411422FE49FE4808F00BFBFE4D7C
:1041F0000024FB4905EB44102022143108F002FB97
:10420000641CE4B2042CF4D3F84F0025C5EBC500C0
:1042100000EB8000002407EBC006F149C4EBC400AA
:1042200006EB80001C22343108F0ECFA641CE4B286
:104230000A2CF2D36D1CEDB2042DE7D3BDE8F0815A
:104240002DE9F041044688460F468D1807F01FFF00
:10425000352008F028F9404607F053FFE04E263E8F
:10426000707306E034F8021B384608F008F87073E3
:10427000BF1CAF4202D2707B0428F3D0012140461C
:104280003170002106E034F8022B03889A4200D0F6
:104290003170801CA842D1D23278002AF3D1CDE708
:1042A0000A4403E031F8023B20F8023B9142F9D383
:1042B00070472DE9F04740F22F2400252246CC49D3
:1042C000CA48FFF7EDFF2246CA49CB48FFF7E8FF8F
:1042D000DFF81893002640F65538C6EBC60000EB11
:1042E0008000002409EBC007C4EBC40017F82010BD
:1042F000072900D3012507EB8000818864394145F7
:1043000001D3012500E025B1B5491C22343108F064
:1043100079FA641CE4B20A2CE6D3761CF6B2042EB9
:10432000DBD3BDE8F08770B500241322B349AD4854
:10433000FFF7B6FFAB4D2878042800D30124288A64
:10434000A0F51C501038B0F5FA6F00D90124A87BF5
:10435000042800D824B11422A149A24808F052FA36
:10436000A87BA74931F81000A649088070BD70B538
:1043700000265C22A449A548FFF792FFA34D002424
:10438000304655F8241008F015FE641CE4B20646C9
:10439000162CF5D308F0E2FD9D4A9E4B08F0F8FB81
:1043A00008F0C4FBA96D08F035FF0ED058229A49D9
:1043B000964808F06CFA8B489849C07931F810009B
:1043C000BDE870400A2101F063B870BD2DE9F043EB
:1043D000DFF81C92ADF2644D40F22F2500242A46EE
:1043E00049466846FFF75CFFDFF808828CA82A463A
:1043F00041460746FFF754FF7C496A460020135C9C
:104400000E5CB34201D0012403E0401C80B2A842FC
:10441000F5D3794900200E463A5C0B5C9A4205D1EF
:10442000401C80B2A842F7D3002C11D06D487B49C4
:10443000C07931F810000A2101F02AF82A464946CD
:104440006A48FFF7FDFE2A4641463046FFF7F8FE70
:104450000DF2644DBDE8F08370B5684D86B0002460
:10446000132229466846FFF71BFF5E496A46002073
:10447000135C0E5CB34205D1401C80B21328F7D305
:10448000002C0CD057486549C07931F810000A213A
:1044900000F0FEFF132229465248FFF7D1FE06B076
:1044A00070BD5C2258495948CAE65D49C2070A688E
:1044B00002D042F0040201E022F004020A605949ED
:1044C00082070A6802D542F4005201E022F4005249
:1044D0000A6042070A6802D542F4004201E022F471
:1044E00000420A6002070A6802D542F4804201E0F5
:1044F00022F480420A604C49C2060A6802D542F49E
:10450000805201E022F480520A6082060A6802D5D5
:1045100042F4005201E022F400520A6042060A68A6
:1045200002D542F4804201E022F480420A60000693
:10453000086802D540F4004001E020F40040086023
:10454000704708B530B110208DF8030003208DF8B6
:10455000020002E048208DF803004FF47040ADF8EF
:104560000000314869460C3807F0ABFA4FF4604060
:10457000ADF800002B4869460C3807F0A2FA042079
:10458000ADF80000264869460C3807F09AFA08BDD5
:104590002DE9F84301217D2007F0EDFC03278DF87C
:1045A000027040F20910DFF87C90ADF80000102591
:1045B000A9F10C098DF803506946484607F081FAC5
:1045C000184C206820F008002060206820F00100CE
:1045D0002060206820F4807020600026014825E0DB
:1045E00026000020400B002050090020F00400208D
:1045F00000F0010800F401082007002000F801087D
:10460000A8010020F600002000FC0108680B002033
:104610001B9DF3531CC721408CDA000848E20008B8
:104620000C1401400C0801400C0C01401430694688
:1046300006714FF47F50ADF800008DF80270FF4F07
:104640008DF80350384607F03CFA4FF44060DFF82D
:10465000F083ADF800006946404607F032FA3F208B
:10466000ADF800008DF803606946384607F029FA76
:104670003420ADF800006946484607F022FAC02011
:10468000ADF8000018268DF803606946484607F02B
:1046900018FA40F2C330ADF800006946404607F012
:1046A00010FA0220ADF800008DF803606946484614
:1046B00007F007FA0420ADF800008DF803506946B2
:1046C000484607F0FEF9206840F004002060012011
:1046D000FFF737FF0020FFF7E8FE3820ADF80000B5
:1046E00014208DF803006946404607F0EAF90121DD
:1046F000D44807F071FABDE8F88308B503218DF8B6
:1047000002103821ADF8001008B1142000E0282074
:104710008DF803006946CA4807F0D3F908BD2DE9B2
:10472000F05FC74808300068C749C0F30330096824
:1047300001F4604140EA5120C4490968C44A01F0CB
:10474000040140EA4110C043C1B2507800268142C2
:1047500002D0567151700DE05179491CC9B25171A6
:10476000022907D39178814204D09070D0701071E3
:1047700096715672B748D7780178D7B1B64BB8481A
:10478000B64D1C88807B4FF0640C54B948B10428A6
:1047900007D2D67035F810001880042906D0BDE87D
:1047A000F09F35F810001880042904D1A3F800C048
:1047B000F5E70429F3D0D07B02240425122803D086
:1047C0001C2801D01D2801D104240225DFF894B251
:1047D000DFF8948292464FF00C09A74205D0117978
:1047E000A14237D19079192834D98AF803609AF810
:1047F00006005746192802D91620B8711BE0B97B6C
:10480000384629B9018B788B814201D1022C02D024
:10481000042C03D008E088F8009005E09348944900
:10482000007809788842F6D08D48C1793BF81100AC
:10483000052100F02DFE388B7A8B3946904202D24A
:10484000CE71401C02E0887B10B1888B388301E078
:104850000120F8719AF803005746A84205D038792C
:10486000A84230D1B87919282DD9FE70B879192805
:1048700002D91620B87118E0B87B28B9388BB98BEB
:10488000884201D1022C02D0042C03D006E088F823
:10489000009003E0754800780128F8D07048C1798D
:1048A0003BF81100052100F0F3FD388BB98B8842ED
:1048B00002D93E72401E02E0B87B10B1788B38837B
:1048C00001E00120387298F8000000283FF470AF32
:1048D000401E10F0FF0088F800007FF469AF6048C8
:1048E000C1793BF81100BDE8F05F052100F0D0BDB3
:1048F0005B485549807B091D48B1042802D05648C1
:10490000008820B1086840F004000860704708681B
:1049100020F00400F9E710B50020FFF712FE0A208E
:1049200001F0ACFFFFF7FBFE0120FFF70AFE48484D
:10493000807ABDE81040B8E570B5454C049DE67B33
:10494000864205D0E07308882083A2836383A57321
:10495000208B088070BD70B53D4DA87C00286BD0C1
:104960000024AC74A879401CA871287920B1687A19
:10497000FF2801D2401C68723E48394E0188143627
:10498000491C01804188491C41808188491C8180E3
:10499000C188491CC180B17B4FF08040012903D9F7
:1049A000891EB173318A01E0B473002106F06BFEF9
:1049B000687C642827D364386874E87C2E49801C9E
:1049C000E874687D801C68750878012802D9801E0B
:1049D000087000E00C7020490888012802D9801E68
:1049E000088000E00C8025490888012802D9801E33
:1049F000088000E00C8022490888012802D9801E26
:104A0000088000E00C80E87C0A2843D3EC74287D01
:104A1000401C2875A87D401CA8751A480188491CAF
:104A200001804188491C41808188491C8180C1885E
:104A3000491CC180307927E02CE0000000100140C3
:104A4000000C014000043000080801400814014037
:104A500000000020E2000020F6000020A801002055
:104A6000400B002048E20008E7000020F40000208E
:104A7000F5000020CC000020EB000020F800002012
:104A8000FA0000203C010020002803D0FB490888E0
:104A9000401C088070BDF0B5F948417D0A2925D336
:104AA0000024DFF8E0C3447521464FF461650CF142
:104AB000800700F11E030CEB4110007880B1C1EBC0
:104AC000C10000EB011007EB80004278AA2A09D050
:104AD000028B521C02838278012A08D0022A1BD042
:104AE00023F81140491CC9B20429E4D3F0BDB0F841
:104AF0005220521CA0F8522033F81120C68B3244A9
:104B000092B223F81120AA42ECD3A2F5616223F8F5
:104B1000112000F1540013E0B0F85220521CA0F80C
:104B2000522033F81120068C324492B223F811201F
:104B3000AA42D7D3A2F5616223F8112000F15600F2
:104B4000028802F101020280CCE7CF49CE48143935
:104B50008A79CE49408A31F81210CD4A884203D969
:104B6000106840F4807005E03239884203DA10683A
:104B700020F48070106070472DE9F043C549C04CA7
:104B8000C54D0E782B1FC04FA17AA27D4FF0000CAF
:104B9000042E02D03E787EBB23E02D5CA943A17297
:104BA0003D79E5B1BD4D2D78A84218D1BC4E36F8FF
:104BB000155040F61656B54202D20125257308E07D
:104BC00040F64856B54202D984F80CC005E0257B72
:104BD0001DB112B1012A02D01EE0185C30E0185C51
:104BE00017E0A84FC0EBC00606EB0019803707EBB3
:104BF000890898F8036096B112B1012A06D00BE03B
:104C00001A5C285C0A438243A27223E41A5C285C83
:104C100091438143A1721DE484F816C01AE498F808
:104C2000016016B1AA2E08D0EAE717F82960002E15
:104C3000ECD0002AE4D0012AEED11A5C285C914322
:104C40000843A07206E4974A45F25553136050603A
:104C50009160580010604CF6CC401060704791494C
:104C60004AF6AA2008607047854D00274FF480411E
:104C7000EF72480305F042FF8B484FF4FA71006869
:104C8000B0FBF1F0B0F1807F27D220F07F414FF0F0
:104C9000E020491E4161854AF0210F26117087618D
:104CA00007210161FFF774FC00F036F900F0C2F94A
:104CB00001F061FEFFF737FBFFF7FBFAFFF757FB49
:104CC00075494FF48062091D794807F09BFD7848CB
:104CD00001F098FEEF742F7543E0FEE7E8B3AE7283
:104CE00000F036FEFFF737FE00F085FA002420467C
:104CF00000F032FB641CE4B2042CF8D300F0B8FCE2
:104D0000287D0228EAD360486A491438C07931F80E
:104D100010000A2100F0BCFB2F75FFF71CFEFFF707
:104D2000FAFD05F08BFB00F066FA00F011FEFFF7CC
:104D3000DFFDFFF70AFF0024204600F00DFB2046B0
:104D400001F0FDFC2046FFF717FF204605F034FE7A
:104D5000641CE4B2042CEFD300E002E0FFF79BFEFA
:104D6000DBE7AE72BEE74649087C401CC0B208745F
:104D70000A2803D30020087401208874487C401C52
:104D800048747047FEB54FF4004677100825E8B325
:104D900048208DF80B004FF44040474CADF8080018
:104DA00002A9204606F08DFE14208DF80B004FF46A
:104DB0004050ADF8080002A9204606F082FE4FF4EC
:104DC0006040ADF80800324802A90C3806F079FEC0
:104DD0000424ADF8084002A9384806F072FE0F21FD
:104DE000012006F022FF8DF804400C2000968DF87B
:104DF000050001268DF80660684606F04DFF0E217D
:104E0000012006F012FF6846009700E010E006F06F
:104E100043FF0321012006F008FF8DF804408DF8C0
:104E2000055000958DF80660684606F035FFFEBD1A
:104E300000208DF806000096684606F02DFF6846B3
:104E4000009706F029FF0095EEE770B504464FF491
:104E50008035284606F09FFF06F0CAFF012842D1A0
:104E6000002006F0FAFFA81106F0FEFF002007F070
:104E700002F814B14FF4E01123E021E0FC0000201F
:104E80000000002050090020540B0020E4DA000844
:104E90000C080140E20000207AD50008E80000205C
:104EA0002401002000300040C804002023ED00E071
:104EB0006D0C002048E20008000C01400014014085
:104EC0000021284606F0B2FF012006F0B7FF392086
:104ED00006F079FF0028FAD0022006F0B2FF06F0B3
:104EE000B7FF0828FBD170BD7047FEE7FEE7FEE77D
:104EF000FEE7704770477047FFF735BF10B54FF4B6
:104F00000054204606F018FF002804D02046BDE8D3
:104F1000104006F01FBF10BDF0B587B0012107207B
:104F200007F032F84FF496600024ADF81400ADF8A5
:104F300010404FF08045ADF81640ADF8124004A97E
:104F4000284605F039FFF84E04A9304605F034FF35
:104F5000F64F04A9384605F02FFF7020ADF8000089
:104F60000120ADF802000220ADF80800ADF80640BF
:104F70006946304605F059FF0821304606F081FAAF
:104F80006946384605F051FF0821384606F079FA9F
:104F90006946284605F07EFF0821284606F077FA84
:104FA0006946304605F076FF0821304606F06FFA74
:104FB0006946384605F06EFF0821384606F067FA64
:104FC0006946304605F0A0FF0821304606F066FA33
:104FD0006946384605F098FF0821384606F05EFA23
:104FE0006946304605F0C8FF0821304606F066FAEB
:104FF0006946384605F0C0FF0821384606F05EFADB
:105000000121284606F015FA0121304606F011FA72
:105010000121384606F00DFA0121284606F060F914
:105020000121304606F05CF90121384606F058F9B6
:1050300007B0F0BD10B586B04FF4404006F02FFF2A
:105040000121480206F097FF00214FF46020CDE9CE
:1050500002018DF804100120B54C00918DF8051067
:105060008DF810006946204606F05EFB01212046BF
:1050700006F082FB204606F09CFB204606F09EFBD5
:105080000028FAD1204606F0A0FB204606F0A2FB3D
:105090000028FAD106B010BD2DE9F041A44F00243C
:1050A00001461026254605230122384606F0BCFBA2
:1050B0000121384606F095FB0221384606F082FCB5
:1050C0000028F9D0384606F0F3FB641C2844E4B20B
:1050D00085B2B442ECD3B5FBF6F0BDE8F081C00672
:1050E000010E9448026822F03802026002680A4306
:1050F0000260704770B5904D00242046FFF7EFFF27
:10510000142001F0BBFB022C06D0052C04D0052096
:10511000FFF7C2FF25F824000E20FFF7BDFF05EBC7
:105120008401641CE4B24880082CE6D30420FFF715
:10513000B3FF28840D20FFF7AFFF68840C20FFF732
:10514000ABFFA8840B20FFF7A7FFE8840A20FFF736
:10515000A3FF28850F20FFF79FFF688570BD774963
:10516000764A085C744931F810100020083232F891
:105170001030B1EB830F03D3401CC0B27928F6D3B3
:1051800010B1792800D1782002EB400332F81020CA
:1051900033F8023C92049B041B0CC91A01EB8101F9
:1051A0004900C3EB124291FBF2F1401EC0B2C9B2FA
:1051B00000EB800001EB40006149052264288979F9
:1051C0000DD2C0F1640031B100EBC00090FBF2F0F1
:1051D000C0F5A0700DE080B240F400407047643824
:1051E00080B20129FAD100EBC000B0FBF2F000F56B
:1051F000A07080B270472DE9F05F524D4E4FDFF83E
:1052000048916878401CC0B2687064280DD30020B3
:10521000A9F8120068704C46388D08F04FF84B49D9
:1052200008F060F808F02AF86080FFF763FFDFF805
:105230000881DFF81CA10024AB46A8F15C0807EB4D
:105240004400008C08F03AF804EB840658F8261065
:1052500008F048F808F012F8C4EBC40101EB04129E
:105260000AEB820525F84A0F34480838005D37F804
:10527000100008F023F808EB8601496808F032F8BE
:1052800007F0FCFFA8802D48001F005D37F81000D4
:1052900008F014F82949FC3101EB8601896808F00F
:1052A00021F807F0EBFFE8809BF80100A5F14A0523
:1052B000A8B90CB1022C04D12046FFF750FFA5F885
:1052C0004400201DC0B2FFF74AFF05F14405688085
:1052D000B9F812202888824201D2A9F81200641C71
:1052E000E4B2042CABD3BAF84410AAF8A010BAF870
:1052F000FC10AAF85811788D07F0E0FF154907F067
:10530000F1FF07F0BBFFA9F80800BDE8F09F8B187C
:10531000834201D2012070471044884201D202200A
:105320007047002070470000000400400008004063
:10533000002401400C0C0140C40B002090D900084F
:10534000400B002076000020540B00203255FE4018
:10535000D0090020AE4725402DE9F043F7490978F0
:1053600006296FD0C0EBC001DFF8D48301EB001336
:1053700008EB83011E248A78012A02D0022A0CD06D
:1053800014E0B1F84E20B2FBF4F2B1F84A40944276
:105390000CD3A21AA1F84A2008E001F14A01CA88F8
:1053A000B2FBF4F20C88224421F84A29B1F84A40B1
:1053B0000A6902EB04060E61B1F84E408A6802EBFE
:1053C0000407E04A8F6002EB401292F800C0BCF183
:1053D000000F02D1B1F850204A84B1F850404D8CF2
:1053E0000022AC4203D3641BA1F8504001E0A1F8B5
:1053F0005020B1F85050CC68DFF84C932544CD6074
:105400004C7D641CE4B24C75402C12D3B6FBF4F610
:105410008E83B7FBF4F6B5FBF4F4CE830C844A75A7
:105420000A618A60CA6099F8004014B1641E89F864
:1054300000408C8B4FF4FA76B44204D9012508F869
:10544000235002E01FE008F8232099F80030002BD9
:1054500019D1C82C17D2BCF1000F14D1BA4CCB8B88
:105460001634B34211D9235C5B1CDBB22354022BEC
:1054700009D9CB780A2B06D0B44E0A233370CB70EF
:105480002254C9F80620BDE8F0832254FBE7704798
:10549000AE4AB0F5FA7F0FD0AD4B1B68B3FBF0F30B
:1054A0004FF080408385808D40081082C80701D06E
:1054B000491EC9B291737047002090737047A24A89
:1054C00030B4921D0024155C02F114038D4203D008
:1054D00011541C5430BC70479E4909780029F9D1F9
:1054E0009A49897B0029F5D1195C974DCA0705F1C6
:1054F000120506D129B12A5C521CD2B22A54122AB2
:10550000E8D34A1C2C54D2B21A54062902D30621DD
:105510001954DFE79048D10702D0C089192101E072
:105520000089322130BCB3E730B5044686480A30E2
:1055300000F11405025D8A4202D00155002011E0FD
:105540008448007800280ED18048807B00280AD14A
:10555000285D814940B1012808D002280DD00328D8
:1055600001D1FF20285530BD488900E088891921E4
:10557000FFF78EFF285D401CF4E7C8896421F7E738
:1055800030B5044670480E3000F11405025D8A42C1
:1055900002D0015500201FE06E48007800281CD181
:1055A0006A48807B002818D1295D6B48062914D2EF
:1055B000DFE801F00C030A0C0E1180891921FFF7B6
:1055C00067FF285D401C07E0C089F7E74089F5E7E1
:1055D00080896421F3E7FF20285530BD5F49888129
:1055E00001464FF0804006F04CB870B503465C4869
:1055F0005C4C042B3BD2DFE803F002101E2C39B1C7
:105600000129114600D02046BDE8704006F039B8A7
:10561000002106F036F80021F5E739B101291146DD
:1056200000D02046BDE8704006F02DB8002106F0FD
:105630002AF80021F5E739B10129114600D02046AA
:10564000BDE8704006F021B8002106F01EF80021E8
:10565000F5E739B10129114600D02046BDE8704078
:1056600006F015B8002106F012F80021F5E770BD2C
:105670002DE9F0410024334F314E254600221146DA
:105680002046FFF7B2FF07EB44100570C4EBC400DF
:1056900000EB0410641C06F8205006EB8000E4B216
:1056A000A0F8485045708570042CE7D32748C58082
:1056B00013E5C0EBC00101EB0012214940F24C435D
:1056C00001EB8201B1F848209A4202D2521CA1F8A3
:1056D000482092B2012188E7C0EBC00101EB001223
:1056E000174901EB8201B1F8482012B1521EA1F80E
:1056F000482092B2012178E7C0EBC00101EB001213
:105700000F4901EB8201B1F84820B2F5966F02D83B
:10571000521CA1F8482092B2022166E7C0EBC001FA
:1057200001EB0012064901EB8201B1F8482012B1E9
:10573000521EA1F8482092B2022156E7E200002052
:10574000D00900205009002076000020540B0020D2
:10575000C80400200400002048E20008400B00209C
:1057600000040040000800402DE9F0418046C0EBF5
:10577000C001FA4801EB081100EB8104B4F85800AD
:1057800000282CD1002234F84A5F11464046FFF72A
:105790002CFF012001F07CF840F2B142022140468A
:1057A000FFF723FF0F2001F073F8FFF724FD00221D
:1057B0002688E78811464046FFF717FFA81B4FF4DD
:1057C0007A714843B0FBF7F080B2E081A4F14A045B
:1057D000212801D9213800E00120A4F858007CE4F8
:1057E0002DE9F0410446C0EBC400DFF870C300EBC4
:1057F00004100CEB800042F21076B0F84A30B0F89A
:105800004E20002703FB02F5B5FBF6F60125857057
:10581000B0F85280D24DB8F1050F00D22F5541F2A9
:105820009418434503D92046BDE8F04154E740F2BF
:10583000EC439E4201D88A4208D92046FFF74CFF2C
:10584000285D0A2801D2401C285546E4FDD2285D77
:1058500005280AD26420B2FBF0F1C148303030F89C
:1058600014209142F1D220F814702046BDE8F04196
:105870001FE7F0B4C0EBC002B84E02EB001706EB16
:10588000870242F21075B2F84A40B2F850305C43D9
:10589000B4FBF5F402259570B4F5C87F01D88B42AE
:1058A00001D9F0BC3AE701D2F0BC25E7F0BC704763
:1058B0002DE9F041C0EBC003DFF8A0C203EB001EEE
:1058C0000CEB8E0442F2107734F84A3FA58803FBB4
:1058D00005F6B6FBF7F640F2EC47BE4203D88D4220
:1058E00001D8934202D9BDE8F041F5E602D2BDE805
:1058F000F041DEE6DCE610B5C0EBC002974C02EBEF
:105900000012002304F8223004EB8202D37049B95C
:105910005371A2F85230A2F85430A2F85630A2F8CF
:105920005830537002F1140240F6B8319380D180A0
:105930001387137093709386A2F8463013618849D9
:105940005361936101F13801D36121F8103010BD2A
:105950002DE9F05FDFF80CC2814D844B263DBCF889
:10596000022044F64408DFF800921878A978DFF89E
:10597000ECB10024424503D87D4E378ABA4241D269
:1059800041F28836E246B24227D2BBF81C7040F69C
:10599000B836DC46B7420BD8BCF87870B74207D8A7
:1059A000BCF8D470B74203D8BBF83071B74214D9F1
:1059B000052811D004280FD06E49087005201870F2
:1059C000D9F8001021F00801C9F800106A480470E5
:1059D000FFF74EFE8AF8044097E428780028FBD1B0
:1059E000491CC8B2A8706428F6D9AC709AF80010A7
:1059F0000029F1D1424501D9022100E001218AF8B4
:105A0000001082E421B1491E11F0FF01A970E3D119
:105A1000D9F8002042F00802C9F80020D9F8002087
:105A200022F00102C9F800200428D5D11C70F079B9
:105A3000524931F810000A21FFF72AFDB07B504986
:105A40005A4631F810004F4908800021C1EBC100CF
:105A500000EB011002EB8000491C04618460447576
:105A60008483C483C9B2C4700429EFD3052028708D
:105A70008CF8004049E42DE9F05F0546C0EBC50015
:105A800000EB05174048DFF8D49000EB451609EB12
:105A90008704308AB4F84A1000F596704FF0FE0B78
:105AA0004FF0040A4FF0000881421AD96078AA2802
:105AB00002D0E07860B114E0002211462846FFF7DA
:105AC00094FD86F8008009F8278084F801B008E08A
:105AD000B4F848000A2802D284F803A001E00320A9
:105AE000E0707078032820D2A08B40F6C411884261
:105AF0001BD26078AA2802D0E17861B115E00022BB
:105B000011462846FFF771FD86F8008009F82780C6
:105B100084F801B009E0A178012901D018B104E0AE
:105B200084F803A037E084F803A0A078022832D1DB
:105B30000B49B4F84800091D05282AD9B4F85000CB
:105B40000A2823D2485D401CC0B24855FA2822D901
:105B500001F805800320E0701DE00000D00900205E
:105B60009C000020540B00200C080140E2000020A3
:105B7000400B0020E1000020E300002048E2000884
:105B8000A8010020F600002050090020C820485538
:105B900001E001F80580607890B3B4F85400F28B0E
:105BA000904201D90520E070B08B0A280FD3B4F8D9
:105BB0005220C0EB0010B2EB800F08D9B078042857
:105BC00005D0022803D0032801D00620E070B4F8E5
:105BD0004400C0F30E00FE4AFE4B927933F81220C7
:105BE000904201D90720E070B4F84600728BC0F3F0
:105BF0000E00904204D97078032801D20820E0708A
:105C0000B4F84E0041F28833F34A984208D9505D07
:105C1000401CC0B25055102808D90920E07008E097
:105C200040F6B833984201D202F80580E0780028A7
:105C30000ED086F80080002209F8278011462846F9
:105C4000FFF7D3FCE449FF202839607001F8058094
:105C5000C2E670B586B011B1491EC9B200E00F218D
:105C6000002216466D4611B14B1EDBB200E00F2339
:105C700030F8114030F813309C4203D9E31A25F86C
:105C8000123001E025F8126011B1491EC9B200E0DE
:105C90000F21521CD2B2022AE5D3002035F8101091
:105CA000012902D9002006B070BD401CC0B20228F4
:105CB000F4D30220F7E72DE9F0470546C0EBC50015
:105CC00000EB0511C54800EB8104B4F84400C0F3B3
:105CD0000E01BF488279BF48001F30F81200C04A49
:105CE000814202EB451608D9B4F85A00B1890A304E
:105CF00088420AD2A4F85A0007E06438814204DAE4
:105D0000B4F85A0008B1401EF4E7608B002718B1C0
:105D1000A4F84C70401E6083B4F852003C21B0FBE4
:105D2000F1F201FB1200DFF8B082A0F13701A8F117
:105D30002E0808F13609A8F80400022902D3193800
:105D4000022834D2002201212846FFF74EFCB8F881
:105D500004001A2801D0382833D119F8051029BBBE
:105D6000012109F80510207DA18B04EB4002401CA5
:105D700020759184207D102800D32775217D04F1A2
:105D80002400FFF766FF60B1A08BB4F84C10884286
:105D900001D9A4F84C00F1880844B4F84C108842AA
:105DA0001ED9A775A08B318A884219D809E009F855
:105DB0000570B089B4F85A10401A81B22846FFF72E
:105DC0000FFDB4F846008449728BC0F30E00091D24
:105DD000904208D9485D401CC0B248550A2803D9F2
:105DE0000120BDE8F0874F550020FAE770B5C0EB01
:105DF000C00101EB0012794901EB82046178AA2904
:105E000001D3012070BDB4F84410C1F30E027049F3
:105E10008B797049091F31F81310714B8A4203EBDB
:105E2000401508D9B4F85A10AA890A3191420AD209
:105E3000A4F85A1007E064398A4204DAB4F85A1018
:105E400009B1491EF4E7B4F84A106A8A914205D2B2
:105E500001212171A98996292BD809E0AA8A9142AA
:105E600009D202212171A989B4F85A20891A89B26C
:105E7000FFF7B6FC20E003212171A989B4F85A206C
:105E8000891A2A8A89B2521D92B2FFF711FDB4F81D
:105E90004A002A8A002190420DD3B4F84E003C28D3
:105EA00009D2A07D401CC0B2A075642804D9A17598
:105EB000A7E79621DCE7A175002070BD2DE9F04130
:105EC0000746C0EBC70000EB071144484FF0010C38
:105ED00000EB8104607870B14149002601EB471561
:105EE000012812D0AA2832D0002211463846FFF7E6
:105EF0007CFB2E7073E400213846FFF7FCFC84F82D
:105F000001C03846BDE8F0412EE468784FF0AA0899
:105F100005280FD03846FFF7CEFE0028EAD0002231
:105F200011463846FFF761FB84F801802671A4F81A
:105F3000486054E44FF47A70688240F26270A8823C
:105F4000288A143828833846FFF750FFE5E70121F7
:105F50003846FFF715FB698931B16878052803D009
:105F60003846BDE8F0413BE4288BA18B00F11402D8
:105F7000914201D9267108E0814202D284F804C01E
:105F800001E0207908B13221EAE7A4F848603846F8
:105F9000BDE8F04100221146FFF727BB2DE9F04193
:105FA0000D4E4FF4FA6E203636F81010714502D2BD
:105FB000491C26F81010C0EBC00101EB0012074984
:105FC00001EB8201B1F84420C2F30E04004A09E05B
:105FD000400B002084D90008A4000020D009002034
:105FE000500900209379FE4AFE4D002732F8133005
:105FF00035F810209C420CD936F810C0F44508D36F
:1060000026F81070B1F85A603236964201D2A1F8E3
:106010005A60143B9C4205DAB1F85A3013B15B1E4A
:10602000A1F85A30F04BB1F84A6003EB4013DC8A18
:10603000DB89641DA64217D812B1521E25F8102024
:10604000642202EB9302E74BB1F85040243B9442A8
:1060500008D21A5C521CD2B21A54C82A09D91F5449
:10606000012047E41F5404E09A4202D2521C25F852
:10607000102035F81020B1F85A10511A89B2FFF7E4
:10608000F8FB002036E42DE9F0470446C0EBC400DD
:10609000DFF8588300EB041908EB8905687840B9EC
:1060A00000212046FFF727FC012068702046FFF7FB
:1060B0005BFBCC4E6878203E002701280BD0AA2835
:1060C0003A46114620460ED0FFF78FFAC64800EB3D
:1060D0004410077085E62046FFF760FF0028F9D0DE
:1060E000AA2068700BE0FFF780FAC446A5F8487054
:1060F00001212046FFF744FA1CF8290008B1375562
:106100006FE6305D401CC0B23055C828E2D9FE2091
:10611000687066E62DE9F0478146C0EBC001B348E0
:1061200001EB091100EB8104AF4A60784FF0010CDC
:106130004FF0030A02EB491558B30026AA2838D0BD
:10614000FE285BD06179EA78914201D302287CD0A5
:10615000A74FDFF8A082012857D0022876D0042864
:1061600074D0032850D14846FFF718FF00284BD0C1
:1061700004206070002211464846FFF736FAA4F862
:10618000486060790121401C60714846FFF7B3FB0D
:1061900056E000214846FFF7AEFB287910B184F89D
:1061A00001C001E084F801A04846BDE8F047FFF7D0
:1061B000DBBA01214846FFF7E3F9698921B1484676
:1061C000BDE8F047FFF70CBB288BA18B00F1140250
:1061D000914201D9267108E0814202D284F804C0BC
:1061E00001E0207908B13221E9E7A4F84860484687
:1061F000BDE8F04700221146FFF7F7B9002211462B
:106200004846FFF7F2F92E70EBE568784FF0020A86
:10621000052820D04846FFF74EFD0028F4D0002284
:1062200011464846FFF7E1F9A4F8486084F801A058
:1062300001214846FFF75FFB6079E9788842E3D2A5
:10624000F97938F81100322101E033E00DE0BDE8C2
:10625000F047FFF71DB94FF47A70688240F2627020
:10626000A8824846FFF7C2FDD7E7287A218BC0EB0A
:106270000010B1EB800F07D2002211464846FFF70D
:10628000B4F9A4F84860ACE501214846FFF733FBB8
:10629000607802280BD084F801C0F97938F8110031
:1062A0000A21FFF7F5F824F8546F668099E584F821
:1062B00001A0F2E7AA20607093E52DE9F0470746B8
:1062C000C0EBC70000EB07114848DFF8249100EB52
:1062D0008104454D6078DFF81C8199F8073000266D
:1062E0004FF0010C4FF47A7140F2627205EB4715E2
:1062F000032848D005DC88B101281AD0022806D12D
:106300003AE0042854D005285FD0AA287BD0002288
:1063100011463846FFF769F92E7062E500213846CC
:10632000FFF7E9FA84F801C03846BDE8F047FFF707
:106330001BBA68784FF0020A052817D03846FFF7D5
:10634000BAFC0028E9D0002284F801A011463846A2
:10635000FFF74BF9A4F8486001213846FFF7CBFA64
:1063600099F8071038F8110032212AE06982AA82D0
:106370003846FFF73BFDE4E7208B3C28CDD30320D4
:10638000607026831AE03846FFF708FE0028C4D064
:1063900004206070002211463846FFF726F9A4F861
:1063A000486001213846FFF7A6FAA4F8546018E5C2
:1063B000208B3C28B1D326830520607038F8130069
:1063C0000A21BDE8F047FFF763B86878AA260528D8
:1063D00013D03846FFF76FFC00289ED0667000E5AA
:1063E00080D90008D400002050090020D0090020E6
:1063F000400B002048E2000805E06982AA82384686
:10640000FFF7F4FCE8E701213846FFF7B9F869899E
:1064100021B13846BDE8F047FFF7E2B9288BA18BE0
:1064200000F11402914201D9267108E0814202D2A2
:1064300084F804C001E0207908B13221E9E7A4F82A
:1064400048603846BDE8F04700221146FFF7CDB856
:10645000C0EBC00101EB0012FB4901EB8201B1F876
:106460005220B2F5614F04D94A78AA2A01D0AA2253
:106470004A7023E52DE9F0410646C0EBC60000EB6B
:106480000611F14800EB8105F049687801EB4614EC
:1064900058B1012816D00027AA281BD00022114687
:1064A0003046FFF7A2F8277024E500213046FFF7B9
:1064B00022FA012068703046FFF756F9208A143816
:1064C000208317E53046FFF791FC0028ECD0AA2086
:1064D00068700FE501213046FFF752F8A0780228D6
:1064E00008D0208A401D82B23046BDE8F0413221FA
:1064F000FFF7DEB9A5F848703046BDE8F04100224C
:106500001146FFF772B82DE9F0470446C0EBC4000E
:10651000CD4900EB041801EB8805687880B1CC4EBA
:106520000027012817D08946AA283A461146204656
:1065300019D0FFF75AF8C54800EB4410077050E433
:1065400000212046FFF7D7F9012068702046BDE8FA
:10655000F047FFF709B92046FFF720FD0028EED0ED
:10656000AA2068700BE0FFF740F8CC46A5F8487009
:1065700001212046FFF704F81CF8280008B1375520
:106580002FE4305D401CC0B23055C828D7D9FE205A
:10659000687026E42DE9F0410446C0EBC40000EB2E
:1065A0000411A948AA4F00EB81053F1D687840B14E
:1065B000385D012824D0022826D12046BDE8F041CC
:1065C00058E700212046FFF796F9A0480A2200EB81
:1065D0004416A88B318AFEF79AFE012148B10128A2
:1065E0000AD00220385569702046BDE8F041FFF717
:1065F000BBB8AA206870F6E73955308AF082F2E716
:106600002046BDE8F0417EE774E42DE9F0470546F9
:10661000C0EBC500DFF8309200EB051C09EB8C04E1
:10662000DFF83082607800268B4F98F807104FF41F
:106630009672032840D005DCB0B101281FD0022893
:1066400008D134E0042853D0814F083705285CD0A6
:10665000AA2862D0002211462846FEF7C6FF7B48D2
:1066600000EB4510067035E500212846FFF743F999
:10667000012060702846BDE8F047FFF775B828464E
:10668000FFF7B4FB0028EED0022060700022114614
:106690002846FEF7AAFFA4F8486001212846FFF724
:1066A0002AF998F80700322137F8100029E0208BEA
:1066B0009042D8D303201FE02846FFF76FFC002844
:1066C000D1D004206070002211462846FEF78DFFCD
:1066D000A4F8486001212846FFF70DF998F8070053
:1066E000322137F81000FEF7D3FEA4F85460F1E42D
:1066F000208B9042B7D305206070268337F81100B5
:106700000A21BDE8F047FEF7C3BE2846FFF76EFB3F
:106710000028A8D0AA20607006E001212846FEF7D4
:106720002FFF19F82C0008B17E55D3E4785D401C8A
:10673000C0B27855C82896D9FE206070CAE42DE909
:10674000F041044645480078062821D000253F4EF8
:1067500004281ED03C4F042C02D24148007830B3AC
:10676000002406EB44100022057011462046FEF777
:106770003CFFC4EBC40000EB0410641C07F820507D
:1067800007EB8000E4B24570A0F84850042CE8D331
:1067900067E40024002211462046FEF726FF06EBA0
:1067A0004410641CE4B20570042CF3D359E406EBE6
:1067B0004416C4EBC401244A307801EB041102EB07
:1067C0008107B8B17878FF2814D0401EA92803D2D9
:1067D00001210020FEF7A8FE2046FFF74CF9707853
:1067E0000328B07824D30528D2D2DFE800F00C11BA
:1067F00015191D00002211462046FEF7F6FEA7F8E7
:1068000048507D702DE42046BDE8F041FFF756BBAF
:106810002046BDE8F04136E42046BDE8F04179E489
:106820002046BDE8F04148E52046BDE8F0410FE6CE
:10683000C0B101281AD002281CD00328A8D12046B4
:10684000BDE8F041E1E60000D00900205009002039
:10685000B8000020400B002048E20008E2000020C1
:10686000540B00202046BDE8F04103E62046BDE879
:10687000F04148E62046BDE8F0418BE600EBC00061
:106880008004000C0100A0F1010080B2FAD1704731
:1068900000B502464FF47A7302E01846FFF7EEFFA8
:1068A0001000A2F1010292B2F7D100BD10B5FF4C69
:1068B000034600221806E06802D540F4005001E0CB
:1068C00020F40050E060E06820F48050E060002098
:1068D000FFF7D4FFE06840F48050E0605806521C97
:1068E000030ED2B2082AE5D310BD10B5F04C2168D2
:1068F00021F400612160216821F480612160FFF7AB
:10690000D5FF206840F480602060206840F400607B
:10691000206010BD10B5E64C216821F400612160B3
:10692000216841F480612160FFF7C0FF206820F4F6
:1069300080602060206840F40060206010BDF0B5E9
:10694000DC4E07460025705D40F0B000FFF7CDFF3C
:106950001020FFF7CAFF0020FFF7C7FF00243846CA
:10696000FFF7D8FF641CE4B2802CF8D36D1CEDB2A5
:10697000082DE8D3F0BD00B5E220FFF7B6FFAE204A
:10698000FFF7B3FFA220FFF7B0FFA020FFF7ADFF96
:10699000C020FFF7AAFF2520FFF7A7FF8120FFF700
:1069A000A4FF2320FFF7A1FF2C20FFF79EFF02206A
:1069B000FFF76EFF2E20FFF798FF0220FFF768FF1A
:1069C0002F20FFF792FF0220FFF762FFA620FFF7BC
:1069D0008CFFA420FFF789FF4020FFF786FFB0203F
:1069E000FFF783FF1020FFF780FF0020FFF77DFFF8
:1069F0000020FFF7A4FF0120FFF74AFFAF205DF85A
:106A000004EB72E7F0B5AB4F06460025785D40F029
:106A1000B000FFF76AFF1020FFF767FF0020FFF7C5
:106A200064FF002416F8010BFFF774FF641CE4B246
:106A3000802CF7D36D1CEDB2082DE7D3F0BD70B5F7
:106A40009D4E04469B483178405C40F0B000FFF713
:106A50004CFF1020FFF749FF0020FFF746FF30787A
:106A600004EBC015002415F8010BFFF753FF641C5D
:106A7000E4B2802CF7D33078401CC0B230700828C4
:106A800001D30020307070BDF0B5203A02EB8202D5
:106A900095B20022DFF824C2C90100EB4000884F04
:106AA00001EB4006A8181CF8003000200146400603
:106AB000000EDC0701D0401CC0B2491C5B08C9B203
:106AC0000829F4D3B118521CD2B27854052AE9D35C
:106AD0000020F1194871F0BD2DE9F043203A02EB96
:106AE00082021FFA82F8CD08DFF8D091744C01F0D1
:106AF0000703002208EB0206002119F806700E4673
:106B00004906090E5FEAC77C01D0491CC9B2761C50
:106B10007F08F6B2082EF3D300EBC51606EB020C85
:106B2000644E14F80C700836F65C0E40DE40774078
:106B3000EE0104F80C708036064406EB020CC3F13B
:106B40000807B94014F80C60521C4E40D2B204F849
:106B50000C60052ACED3BDE8F083F0B504460F469D
:106B60001546002606E02046641C6D1CE4B239463A
:106B7000FFF78AFF2A78002A03D0761CF6B2162E79
:106B8000F1D3F0BDF0B505460F461446002606E0E9
:106B9000641C39462846FFF79FFFAD1DEDB22278F1
:106BA000002A03D0761CF6B2162EF1D3F0BD2DE9E3
:106BB000F04F203AC2EBC2025204DFF8F8B04FEABD
:106BC0001249DFF8FCA000220BF1100BC0EBC0064D
:106BD00009EB020300291BF8030003D04FEA4060D1
:106BE0004FEA10605B44DB7933D001EB41054FF095
:106BF000040440EAD31004EB85054FEA4363C5F370
:106C0000C7044FEA136315F0070511D006EBC4174C
:106C100007EB020C0CEB0A07EB4097F80180C5F17B
:106C2000080C00FA0CF71F43E840FBB240EA0800EA
:106C300006EBC415AF1857447870E001803030443B
:106C400010445044521CD2B24370072AC0D3BDE84E
:106C5000F08F0024ECE7F0B504460F4615460026F9
:106C600006E02046641C6D1CE4B23946FFF79FFF26
:106C70002A78002A03D0761CF6B2132EF1D3F0BD89
:106C8000F0B50F4A074600217D3A0846FFF7E3FFBB
:106C90000B4A0121673A0020FFF7DDFF084A022175
:106CA000513A0020FFF7D7FF054A0BE000100140E2
:106CB0000C0C0140E8DA0008DC0000201CE00008B1
:106CC0006D0C00203B3A03210020FFF7C4FFA54ACA
:106CD00004210020FFF7BFFFA24C163404F10F057A
:106CE000A078B0B120786178C0EBC000401CC1EB47
:106CF000C103C0B25B1C0AE0295CC94329542918AE
:106D0000401C11F8802FC0B282F0FC020A7083424E
:106D1000F2D86079C8B1E0782179C0EBC000401C9E
:106D2000C1EBC103C0B25B1C0DE0291891F8002132
:106D3000D24381F8002191F88021401C82F0F002BA
:106D400081F88021C0B28342EFD8207AC8B1A079FF
:106D5000E179C0EBC000401CC1EBC103C0B25B1CB9
:106D60000DE0291891F8802182F00F0281F880212E
:106D700091F80022D243401C81F80022C0B2834225
:106D8000EFD8E07AC8B1607AA17AC0EBC000401CAD
:106D9000C1EBC103C0B25B1C0DE0291891F8802241
:106DA000D24381F8802291F80023401C82F0F00247
:106DB00081F80023C0B28342EFD8A07BC8B1207B0A
:106DC000617BC0EBC000401CC1EBC102C0B2521CD1
:106DD0000DE0291891F8003383F00F0381F8003398
:106DE00091F88033DB43401C81F88033C0B282428B
:106DF000EFD80022FF26002102E009B17F2902D14D
:106E000001EBC2102E5412B1072A05D00AE0685CCB
:106E100040F08000685405E001F56073EC5C44F0DC
:106E20000104EC54491CC9B28029E6D3521CD2B2E9
:106E3000082AE0D3012F06D0022F09D1BDE8F04087
:106E400048482530DEE5BDE8F04046482530F6E507
:106E5000F0BD70B5444C63785B1CDBB26370502BA3
:106E60000ED200EB400606EBC0003E4E2025583EF9
:106E700006EB400002E04554491CC9B29142FAD3E6
:106E80000020A02B00D360703849897B09B1607065
:106E900070BD374800780028FAD05020F7E710B5C9
:106EA000304C00EB40001634215420444270837073
:106EB00010BDCA082B4B10B500EBC210253301F0F2
:106EC0000701C1F107011A5C01248C4022431A54C6
:106ED00010BD2DE9FC4F0025171A8046681E2E466E
:106EE000A3EB010C8946002F02DD4FF0010102E007
:106EF00003D14FF000018B4602E08346C7F1000743
:106F0000BCF1000F02DD4FF0010002E003D14FF0B1
:106F10000000009002E0CCF1000C0090674501DD1C
:106F20003C4600E06446601C4FF0000A019014E00B
:106F300009F0FF0108F0FF00FFF7BBFF3D44664486
:106F4000A54201DD2D1BD844A64202DD0099361B67
:106F500089440AF101001FFA80FA01998A45E7DDA8
:106F6000BDE8FC8F480C0020DC000020540B002002
:106F700004000020F0B5FE4FDFF8F8C3DFF8F8E3B7
:106F800059E0C0EBC00202EB820207EBC2030CEB3C
:106F900000025278C2EBC2040EEB401213F82450E8
:106FA00003EB840355705C7894709E889681DE882C
:106FB000D6815E8916821E89D6829E8A1683032D0B
:106FC00024D2DFE805F0020D18004FF44865558221
:106FD00041F254059582022C18D140F6C46414E0A5
:106FE0004FF42F65558240F6FC559582022C0DD149
:106FF0004FF44D6409E040F6E445558241F2CC057A
:107000009582022C02D140F6287494825C8804EBAD
:1070100044046408D483DC8A54831C8B94831C7BD3
:10702000D4709C7B14711C8AD4805C8A54815B7BF5
:10703000401C1372C0B28842A3D9F0BD2DE9F04FB5
:10704000DFF838A3CE4D9BB09AF8030005F1160186
:107050000091423101911639DFF82893CA4ECB4F87
:107060004FF0000B2C351991D0B1D046012871D0CA
:107070000AF1400A0AF1140402286CD003286BD0EC
:10708000DFF80CC3042868D0052867D044460628DA
:1070900073D0FEF7EDFA0720A0701BB0BDE8F08FAB
:1070A000BCA1B74805F06EFABFA1009805F06AFAD6
:1070B000BDA1284605F066FABBA1199805F062FA51
:1070C000B9A1019805F05EFA0021012312220846B9
:1070D000FFF7E5FE00231A4619460120FFF7DFFE01
:1070E00000231A4619460220FFF7D9FE00231A464C
:1070F00019460320FFF7D3FE00231A461946042041
:10710000FFF7CDFEADA1284605F03CFAFEF7B0FA38
:1071100000259A4BDC4628461AA934334FF0010863
:10712000CDF868B005E025B11C5C0A2C08D90A54DA
:1071300006E01A5C642A02D9012501F80080424663
:10714000401CC0B20428EED33DB39DF86B0030B1B3
:107150009FA005E0A0E0CEE0F8E08FE2C9E291A0B8
:107160009DF86A1009B19BA100E08EA1CDE9001045
:107170009DF8690010B198A301E000E389A39DF890
:10718000680008B195A200E086A295A1199805F0C3
:10719000F9F90A208AF803007FE70024E346C4EBEC
:1071A000C40000EB041006EB80003222B0F84A0065
:1071B00041F26801FEF7ABF838B170488AF80AB0BE
:1071C0003430015D491C01550125641CE4B2042CD6
:1071D000E5D3002DE0D19AF80A005446401CC0B215
:1071E0008AF80A0064280ED200205A46C0EBC0017B
:1071F00001EB001106EB8101401C0A61C0B24A7527
:107200000428F3D349E7707D38B95A48C1797948E1
:1072100030F811000521FEF73BF96420A072002030
:107220004A46C0EBC00101EB001106EB810102EB05
:1072300040050B692D8C401C2B440B614B7DC0B26B
:107240005B1C4B750428ECD3707D8028A4D3582296
:1072500069494E4805F01BFBDFF8A0910025C5EBFE
:10726000C50000EB051006EB80014A7D0869B0FB04
:10727000F2F080B2888306F021F80146484605F016
:1072800007FF05EB85016D1CEDB247F82100042DC9
:10729000E5D384F8038000E7002459A1284605F0CF
:1072A00071F95CA1199805F06DF900254FF47A7A0F
:1072B00009EB4500008C06F001F805EB850157F855
:1072C000211006F00FF805F0D9FFC5EBC50101EB61
:1072D000051180B206EB81015045888301D9641CF9
:1072E000E4B26D1CEDB2042DE2D3002C8AD1022150
:1072F00088F80310D1E64CA1284605F043F92AA1ED
:10730000199805F03FF94D4801780829C3D180F854
:1073100000B018485D46C179364830F811000521A3
:10732000FEF7B6F8032088F803008AF803508AF8BD
:1073300002508AF801508AF80050E580A5806580E7
:10734000258088F8105088F81150A6E60027554689
:10735000E85D58B1002211463846FEF746F9074865
:10736000543030F817104FF47A7069E0AEE0000046
:10737000F0040020400B002050090020E000002015
:10738000F00B0020C40B0020D0090020680B002067
:1073900088D900082020202043616C6962726174E2
:1073A00065202020202000002020202020202020D8
:1073B000202020202020202020200000496E7365FE
:1073C000742053544420565245462E2E2E2E000033
:1073D0005334000053330000533200005331000097
:1073E000204552523A25732025732025732025739A
:1073F0002020000048E200088CDA000800408345A5
:1074000043616C69627261746520566F6C74616768
:10741000652000004F4B2154616B65206F6666202C
:10742000565245462E2E0000496E736572742052E6
:1074300065736973746F722E2E2E00000300002096
:10744000B1FBF0F300FB1311E85D012842D0F7A077
:10745000CDE9001007EB470000EBC701F5487A1CA7
:1074600000EB41001630F4A105F08CF87F1CFFB250
:10747000042FFFF46DAF98F8110047464FF000035A
:1074800050B300F10901CAB20830C1B2387C401CC7
:10749000C0B2FFF7DEFCDFF8B8A3DFF8B893D84638
:1074A0000024AB46EB4DEC48123D295D0278914239
:1074B0001BD180F800809AF8071039F811000521D7
:1074C000FDF7E6FF1BF8040048B10EE04FF4E1724F
:1074D000012141E7E1A0BBE708220721D6E7E14807
:1074E0003C7480F8008087F81180DF48295D0078BF
:1074F000814238D1DD480078322834D9DA4880F822
:107500000080DA4880F800809AF8071039F81100F6
:107510001421FDF7BDFFD64830F814104FF47A70EF
:10752000814224D9C4EBC40202EB041206EB8202AE
:107530000423C2F8088082F8158001220BF8042089
:10754000FB70B1FBF0F300FB1310009004EB440060
:1075500000EBC401B748621C00EB41001630C5A126
:1075600005F010F803E0641CE4B2042C9AD3BA4886
:107570000178082913D180F800809AF8071039F8AB
:1075800011000521FDF784FF787C401CC0B278749F
:10759000042801D187F81180B24880F80080BB4CE4
:1075A000387C797C04EB80003D46405CB884012047
:1075B000AF4900900923002230395020FDF7BCF973
:1075C0002A7C697C04EB8203A88C5854A84C4FF4A5
:1075D0007A71002024F812804FF00A0C1F5C34F8F6
:1075E0001250401C07FB0155B1FBFCF1C0B224F85E
:1075F00012500428F2D39C49087808287FF4CCADB7
:107600009A48007832287FF6C7AD81F800809AF852
:10761000071039F811001421FDF73AFF0021084640
:107620005A46135C0BB9491CC9B2401CC0B20428AD
:10763000F7D3F1B1002108464FF47A73C0EBC002D2
:1076400002EB001206EB8202C2F8088082F8158075
:1076500034F810209A4201D2491CC9B2401CC0B271
:107660000428EBD30029C9D1814805215438C170C1
:1076700013E57F4906205439C8700EE598F810507C
:10768000C5EBC50000EB05101CF8053006EB8001CA
:1076900039F81320886802448A60487D401CC0B2D3
:1076A00048758028E4D3B2FBF0F080B2C88305F0BF
:1076B00005FE064634F8150005F000FE314605F0DB
:1076C000E7FC05EB850107EB81015246486000218C
:1076D0000846135C43B1401CC0B20428F9D3E9B397
:1076E000032088F80300D8E4491CC9B288F81000C8
:1076F000F5E700204A46C0EBC00101EB00111CF881
:10770000005006EB8101401C32F815508B68C0B266
:107710002B448B600428EED3C0EBC00101EB0010BA
:1077200006EB8000417D491CC9B2417580299FD379
:107730000025A146C5EBC50000EB051006EB800156
:107740004A7D8868B0FBF2F080B2C88305F0B6FDD0
:10775000044639F8150005F0B1FD00E00BE02146C4
:1077600005F096FC05EB850107EB81016D1CEDB280
:107770004860042DDED3FDF77BFF0620B1E7AFF2B2
:10778000D831009804F0FEFEAFF2E431284604F050
:10779000F9FEAFF2EC31199804F0F4FEAFF2F831D3
:1077A000019804F0EFFE58460025C7F858B057F886
:1077B000251005F0FFFB6D1CEDB2B865162DF6D354
:1077C00005F0CCFB324A334B05F0E2F905F0AEF997
:1077D000B8655C22304902A805F059F8FCF761FE53
:1077E000FCF7C5FD002635460DF1080857F82510B1
:1077F00058F8250005F00EFD01D0761CF6B26D1C80
:10780000EDB2172DF2D30EB124A100E028A11998F2
:1078100004F0B8FE0A20E0700D48C1790D4830F838
:1078200011003221FDF734FE37E400002020202033
:1078300020000000F00B0020536F6C742531643A77
:10784000202531642E25303364202573000000008C
:10785000400B002048E200080300002053617665D9
:10786000640000000F00002004000020060000203B
:1078700034010020536F6C742531643A2025316443
:107880002E25303364202E2E2E2E2E006E1000203A
:107890001B9DF3531CC72140680B00204552524FDB
:1078A000522120436865636B20466C617368000059
:1078B0004F4B2120437574206F666620506F7765AB
:1078C000722000002DE9F047FE4E0B20FE4D707532
:1078D0000024C4EBC40000EB041005EB8000C0786A
:1078E00020B1042C06D20121204605E0641CE4B23C
:1078F000042CEED301210020FDF7E1FD002101233E
:1079000012220846FFF7CBFA00231A461946012037
:10791000FFF7C5FA00231A4619460220FFF7BFFAFF
:1079200000231A4619460320FFF7B9FA00231A4626
:1079300019460420FFF7B3FAE4A1E94804F022FE57
:10794000AFF29C51E648163004F01CFEE54FE449C6
:10795000DFF894933A7801F12C0001F142084FF0DE
:10796000000A032A04D2E1A104F00CFE39780BE0EE
:10797000042C12D2E2A104F005FEC4EBC40000EB1B
:10798000041005EB8000C17809EB8100E1A150F8FB
:10799000042C404604F0F6FD03E087F800A0707860
:1079A000B070AFF2FC51CE48583004F0EBFDDC492A
:1079B0000878012815D181F800A087F800A085F883
:1079C00003A085F85FA0D74885F8BBA085F817A16C
:1079D000C079D54931F810000521FDF759FD7078BF
:1079E000B070BDE8F0872DE9F05FBE48B54C008966
:1079F000216B08442063607A401CC1B26172207818
:107A0000FF2801D2401C2070AE4EC0B2DFF81C83AC
:107A10000025AD4F44364FF0320A4FF0050950288B
:107A200002D2256365724EE050294CD3217A0020A2
:107A300088423BD1637A226BB2FBF3F292B241F2FD
:107A4000941322849A420FD9E37B5B1CDBB2E3736D
:107A5000052B0AD9E573FDF70BFED8F8001021F0CD
:107A60000801C8F800104DE0E5731A23B2FBF3F3E8
:107A7000C1EBC10C0CEB011C07EB8C0CBCF81CC05F
:107A800063449BB25A434FF4C85CB2FBFCF226F845
:107A900011302284256340F6E442657293420ED38E
:107AA000E278022A0BD0A4F81AA008E0C0EBC002CA
:107AB00002EB001207EB8202928B26F81020401C8A
:107AC000C0B20428B4D3208C642802D96420208357
:107AD0000BE0208B48B9FDF7CBFDD8F8001021F062
:107AE0000801C8F8001084F80290DFF8D8C1628B52
:107AF000E07801230CF12A0C42B168B101285FD073
:107B0000022801D184F80290BDE8F09F0228F9D044
:107B1000207A0CF80030E570002040F67A51C0EB76
:107B2000C00606EB001607EB8606B68B8E4202D91E
:107B30001CF800602EB3401CC0B20428EFD3042808
:107B400021D0D8F8001041F00801C8F8001078489A
:107B5000C16821F04001C160C16821F08001C160AD
:107B6000C16821F48071C160C16821F40071C160F5
:107B7000217A89B1012913D0022915D0032917D000
:107B80001AE02072DBE7002ABED16A4805700220A5
:107B9000E070FF206083B7E7C16841F040010AE070
:107BA000C16841F0800106E0C16841F4807102E0E3
:107BB000C16841F40071C160A4F81AA0E370A3E7A2
:107BC0000021012312220846FFF769F900231A4613
:107BD00019460120FFF763F900231A4619460220CF
:107BE000FFF75DF900231A4619460320FFF757F9FE
:107BF00000231A4619460420FFF751F94EA13848D0
:107C000004F0C0FCAFF660013548163004F0BAFC51
:107C1000AFF66C0132482C3004F0B4FCAFF67801BA
:107C20002F48423004F0AEFCAFF684012C485830A7
:107C300004F0A8FC0020FFF723F85A223F230E216E
:107C40001046FFF746F926237F2219465A20FFF7F0
:107C500040F93EA1224804F095FC214A10215B2006
:107C6000FEF790FFA18B3C20B1FBF0F200FB12135A
:107C700038A11B4804F086FC194A1C215B20FEF742
:107C800081FF37A1164804F07DFC154A28215B20AE
:107C9000FEF778FF218C4FF47A7BB1FBFBF20BFBF4
:107CA00012114FF0640AB1FBFAF32FA10C4804F053
:107CB00069FC0B4A34215C20FEF764FF1A4F122541
:107CC0000E3F57E0E0000020D009002020202020B7
:107CD00020204552524F52202020202020200000FA
:107CE000F00B0020540B00209C04002020202020BA
:107CF00020204368617267657220202020200000E8
:107D000020202020534C4F54204552524F522020C7
:107D100020200000202020257320202000000000CB
:107D200003000020400B002048E200080C0801403E
:107D3000001001407C00002020202020504F57459B
:107D4000522042414E4B2020202000002054494D1B
:107D500045000000253033643A25303264000000CD
:107D60004F555450555400002531642E253164413F
:107D70000000000000242B46385D1946821DFFF7E5
:107D8000A8F8641CE4B2042CF5D36D1CEDB2162DDA
:107D900097D3DFF86494162540F6B8374FF01E08E5
:107DA000002436F81400B84201D2002002E0A0F608
:107DB000B83080B2B0FBF8F0282800D92820C0F1F4
:107DC0003E00A84201DD162D07D119F804002B460C
:107DD00000F114021946FFF77CF8641CE4B2042C8D
:107DE000DFD36D1CEDB23F2DDAD300245F464D4644
:107DF0003E23285D16210246FFF76BF8285D3E23DF
:107E0000143002461621FFF764F836F81400B0FB70
:107E1000F7F207FB1201B1FBFAF3F8A1F94804F0FD
:107E2000B1FB285DF74A801CC0B22021FEF7AAFEF4
:107E3000641CE4B2042CDBD3BDE8F05FF248FEF72B
:107E4000FEBD2DE9F04F89B00020F04E089007905C
:107E50000C207075EEA1EB4804F094FB0024E94D72
:107E6000DFF8C0934FF0010AA346E84E06F5037110
:107E7000B07C204411F83020113A162A39D2DFE8BC
:107E800002F00B39F1F0EFEEEDECEBEA383838ACFC
:107E9000383838383838E9E899F805204F460AB1BB
:107EA000E1A300E0E1A301EBC000E1A1426804EB23
:107EB000440000EBC40005EB4000163004F062FB08
:107EC000F078012815D1F07C611C8842FAD1012399
:107ED00012220F21FEF7BDFF7879B084CB49012330
:107EE000002224311320CDF800A0FCF725FDB08C32
:107EF000787176E399F806204F460AB1CEA300E0E8
:107F0000D0A301EBC000D2A1426804EB440000EB17
:107F1000C40005EB4000163004F034FBF078012873
:107F2000E7D1F07C611C8842E3D1012312220821B1
:107F3000FEF78FFFB879B084B449012300222431C1
:107F40001420CDF800A0FCF7F7FCB979B08C814281
:107F5000CFD0B8714FF00001F0B1DFF8FCC20527B7
:107F6000C1EBC10202EB820200200CEBC206C0EBA7
:107F7000C00206EB8203401CDA8AC0B202EBC202E6
:107F8000B2FBF7F202F5A072DA820A28EFD3491C9D
:107F9000C9B20429E4D31DE0DFF8BCC20927C1EB54
:107FA000C10202EB820200200CEBC206C0EBC00251
:107FB00006EB8203401CDA8AC0B2A2F5A07202EB83
:107FC000820292FBF7F2DA820A28EFD3491CC9B287
:107FD0000429E4D3FCF7FAF903E38C4A538C03F148
:107FE00001039BB253849D4A528A0092120401D528
:107FF0002D2200E020228DF8142000222D26DFF80B
:1080000060E22027C2EBC20C0CEB02180EEB880CCE
:10801000BCF846C04FEA0C4CBCF1000F0DF1140C3B
:10802000944402DA8CF8016001E08CF80170521C73
:10803000D2B2042AE6D3754FC82B25D2009AC2F3D8
:108040000E030A22B3FBF2F399F806205AB17D22FF
:108050000AE08FE249E21AE2E3E1B3E182E151E1B1
:10806000C2E0A3E286E07C22CDE9003201EBC00051
:108070009DF81430426804EB440000EBC40005EBAB
:108080004000163077A163E0B3F5C87F2ED2BEF86A
:10809000A210BEF84600C1F30E020A21B2FBF1F3B2
:1080A000C0F30E00B0FBF1F299F80600002802D0F0
:1080B0004FF07D0101E04FF07C019DF8166002D089
:1080C0004FF07D0001E04FF07C000296CDE90331D6
:1080D000CDE9002004EB440000EBC40005EB4000B8
:1080E0009DF8153000F1160062A230E0B3F5167F5E
:1080F00031D2BEF85A11BEF8FE00C1F30E020A21B9
:10810000B2FBF1F3C0F30E00B0FBF1F299F80600F8
:10811000002802D04FF07D0101E04FF07C019DF876
:10812000186002D04FF07D0001E04FF07C00029615
:10813000CDE90331CDE9002004EB440000EBC4009D
:108140009DF8173005EB400000F116004BA24DA141
:1081500004F018FA01E0A7F822B0F97838460129AE
:1081600041D1C17C621C9142FAD180F803B00C214C
:10817000F97118E201EBC00099F80730426804EB8E
:10818000440000EBC40005EB40004F4600F1160030
:108190001BB141A104F0F6F902E043A104F0F2F9A9
:1081A000F0780128DCD1F07C611C8842D8D1012311
:1081B00012220F21FEF74DFEF879B08413490823EF
:1081C000002224311520CDF800A0FCF7B5FBF97989
:1081D000B08C814207D00849F8710A3131F810009B
:1081E0000521FDF755F9FCE199F808204F460AB141
:1081F0000DA361E05EE000003EE200082531642E40
:1082000025316400F00B00206D0C0020E000002000
:10821000202020202020534554205550202020206D
:1082200020200000400B002059657300204E6F0095
:10823000257320202573000046616872656E6865AD
:108240006974000020202043656C73697573000019
:108250002573202573000000F0040020540B00203B
:10826000D0090020257320202020202025632533DD
:108270006425630042312F42323A000042332F42DC
:10828000343A0000257320256325336425632C25AB
:1082900063253364256300002573202020202020DF
:1082A0002025316400000000257320202020204F6D
:1082B00046460000AFF28C0301EBC000426804EBBD
:1082C000440000EBC40005EB40001630FDA104F0B3
:1082D00059F9F078012886D1F07C611C8842FAD1E6
:1082E000012312220F21FEF7B4FD387AB084012356
:1082F0000022F7491620CDF800A0FCF71DFBB08C3A
:1083000038726EE199F809204F4612B1AFF2E803D6
:1083100001E0AFF2E80301EBC000426804EB440067
:1083200000EBC40005EB40001630AFF2FC0104F096
:1083300029F9F0780128E4D1F07C611C8842E0D171
:10834000012312220F21FEF784FD787AB0840123E5
:108350000022DF491720CDF800A0FCF7EDFAB08C21
:1083600078723EE199F80A204F4612B1AFF24813F5
:1083700001E0AFF2481301EBC000426804EB440097
:1083800000EBC40005EB40001630AFF25C1104F0C6
:10839000F9F8F0780128B4D1F07C611C8842B0D1A2
:1083A000012312220F21FEF754FDB87AB084012375
:1083B0000022C7491820CDF800A0FCF7BDFAB08C08
:1083C000B8720EE199F80B204F4612B1AFF2A81324
:1083D00001E0AFF2A81301EBC000BAA1426804EBC0
:1083E000440000EBC40005EB4000163004F0CAF86E
:1083F000F078012885D1F07C611C8842B1D101233D
:1084000012220F21FEF725FDF87AB0840123002205
:10841000AF491920CDF800A0FCF78EFAB08CF872A5
:10842000DFE099F80E20AB4B01EBC0004F4653F84C
:108430002230426804EB440000EBC40005EB40002E
:108440001630AFF2F41104F09DF8F07801281DD138
:10845000F07C611C884219D1012312220921FEF708
:10846000F8FCB87BB0840423002299491A20CDF887
:1084700000A0FCF761FAB97BB08C814206D0944928
:10848000C0B2A431B87331F81000F082A9E0914B6A
:1084900099F80F20143301EBC00053F822304268E2
:1084A00004EB440000EBC40005EB40004F461630DF
:1084B000AFF2642104F066F8F078012814D1F07C62
:1084C000611C884210D1012312220921FEF7C1FC50
:1084D000F87BB084042300227D491B20CDF800A046
:1084E000FCF72AFAB08CF8737BE0B9F810304FF43F
:1084F0007A72B3FBF2F802FB18334FF0640EB3FB51
:10850000FEFC754A01EBC00074A157884FF47A72E3
:10851000B7FBF2F302FB1377B7FBFEF28DE8041111
:10852000426804EB440000EBC40005EB4000163049
:1085300004F028F8F078012853D1F07C611C8842BF
:108540004FD1012311220D21FEF783FCB9F8101041
:108550006420B1FBF0F0B0844F46782364225C497C
:108560001F20CDF800B0FCF7E7F9B08C6421484338
:10857000388236E001EBC0005EA3426804EB4400A1
:1085800000EBC40005EB400016305CA103F0FAFFDD
:10859000F078012825D1F07C611C884221D186F831
:1085A00003B00C20F071012008901AE001EBC0002C
:1085B00054A1426804EB440000EBC40005EB40000A
:1085C000163003F0DFFFF07801280AD1F07C611C3F
:1085D000884206D101230D220821FEF73AFC012032
:1085E0000790641CE4B2042CFFF43FAC384C243CEC
:1085F000E078C8BB0021012312220846FEF74FFC99
:1086000000231A4619460120FEF749FC00231A46AA
:1086100019460220FEF743FC00231A4619460320A0
:10862000FEF73DFC00231A4619460420FEF737FCEE
:10863000E07CA0845D460423012225491C20CDF85E
:1086400000B0FCF779F9A08C0123C0B2E074A17CE2
:108650001222014421750021FEF721FCE07C042850
:1086600003D0214601280DD016E02748017899B1A2
:108670000570217D627D204691420DD2817C491C8E
:10868000A17409E02148027832B10570087D012803
:1086900002D9887C401EA0741D4D2878012802D084
:1086A00008283CD054E099F807101A4830F8110017
:1086B0000521FCF7EDFE85F800B0E178584659B386
:1086C000E07045E025732020202020257300000065
:1086D0000401002074040020540B00202573202581
:1086E00032642E253164565B2532642E2531645D5B
:1086F00000000000312E30300000000025732020E3
:108700002020202025730000070000200800002002
:108710000300002048E20008FFE7A07018E099F885
:108720000710FE4830F811000521FCF7B1FE85F86E
:1087300000B0E07C5E4658B1E078401CC0B2E0700A
:10874000022805D3079808B9FBF786FEE67001E01A
:10875000089838B1E07C042856D0401CE074F049F9
:1087600081F800B0EF48017808294AD1079901291A
:1087700047D1ED490978322943D980F800B05D46E8
:10878000EA49EB4803F0FEFEE948EAA1163003F09F
:10879000F9FEE748ECA12C3003F0F4FEE448E3498D
:1087A000423003F0EFFE00231A4619460120FEF77F
:1087B00076FB00231A4619460220FEF770FB0023C1
:1087C0001A4619460320FEF76AFB00231A4619468B
:1087D0000420FEF764FB0220FEF752FAFBF700FDCF
:1087E000FBF7F4FDFBF738FE4FF4FA70FEF750F894
:1087F000A57099F80710C94830F811000A21FCF754
:1088000047FE09B0BDE8F08F217D627D2046914290
:10881000A5D2817C491CA174A1E72DE9F04FCF4F6F
:108820004FF00009CE4CB8788BB04E4601282FD1BE
:10883000CC4D2878802806D0102806D0402806D0B5
:10884000202806D024E07E7105E0012002E002200D
:1088500000E003207871E179B04830F8110005217B
:10886000FCF716FEAE482E70067079796018C1EBE1
:10887000C10101EB8102BC494078B87101EBC20132
:10888000C0EBC00001EB80011C22B84803F0BAFF26
:10889000DFF8D8A2A1499AF80000203131F8102061
:1088A0000A21B2FBF1F206929C4A123232F81020F1
:1088B000B2FBF1F20592994A4A3232F81020B2FB2B
:1088C000F1F20492954A2E3232F81020B2FBF1F107
:1088D0000391A349914A89791A3A32F811200192F9
:1088E0008E4A163A032832F81110029102F16E01F5
:1088F00031F81010079102F17C0131F810B098495D
:10890000487919D2002810D0994D504693499AF8C9
:10891000010001F1800151F8200009904FF003009F
:10892000089006D14FF0060021E0914DA5F13005E9
:10893000EBE74FF00A001AE0002812D08C4D05F149
:10894000880550468A489AF80110A0F1740050F842
:10895000210009904FF00400089006D14FF0070065
:1089600005E0834D05F15005EBE74FF010007875F9
:10897000B878022802D1787D401E7875B97C787D60
:10898000091D814201D3001FB874BB797A79684808
:108990005B1C521C77A1163803F0F4FDF87801280F
:1089A00029D1F87C38BB012311220F21FEF751FA9F
:1089B000B879B8846949092300222431012000963E
:1089C000FBF7BAFFB979B88C814214D0C0B2B87144
:1089D000634A79790A44C1EBC101507001EB81020D
:1089E0006149C0EBC00001EBC20101EB80011C2218
:1089F0005E4803F007FFDFF838810024A8F116086D
:108A0000564FB87C204415F830100A297ED009DC76
:108A1000A1F1020108297AD2DFE801F015FAF8F78E
:108A2000F6F5F4F30E2973D006DC0B2971D00C296E
:108A300070D00D296BD1F0E20F296CD010296BD0CA
:108A40006429F7D1FEE39AF800205146012A0CD19F
:108A5000434A127AF2B3324A1670324A1278042A22
:108A600007D002220A7001227A730A78022A02D001
:108A70000EE00E70F7E73A4A527A5AB3284A167057
:108A8000284A1278042A07D003220A7001227A7336
:108A90000A78052A02D00EE00122F6E7304AD27A9F
:108AA000C2B11F4A16701F4A1278042A00D006224B
:108AB0000A7001227A730A78062A11D1284A927A1A
:108AC00042B1174A1670174A1278042A05D00E7060
:108AD000012200E004E07A7304E005220A70F7E75F
:108AE0007A7B7AB17E730D4BBA8C3C3333F81230FB
:108AF0004B810A4B123333F812200A814FF47A72F9
:108B00008A804E709AF80010144A3FE0FEE377E046
:108B1000CFE2BBE103E2F5E229E3000048E200080E
:108B20000F0000200400002006000020A8730008A9
:108B3000060C00204C6F61642064656661756C747E
:108B400020646174612000005761697420612073A2
:108B500065636F6E642E2E2E2E2E0000E000002026
:108B6000400B002003000020F00400205E120020D3
:108B7000E4010020534C4F542D2531642050524FB6
:108B80004752414D5B253032645D0000643205EB95
:108B9000C00052F82130426804EB440000EBC401ED
:108BA00008EB41001630FEA103F0ECFCF878012838
:108BB00026D1F87C611C8842FAD1012312220A21B5
:108BC000FEF747F99AF80000B884012000900623C8
:108BD0000022F5490220FBF7AFFEB88CF3498AF872
:108BE000000031F810202A39AAF80A2031F81010B4
:108BF000AAF808104FF47A70AAF804008AF8016005
:108C000004E29EE303E34AE3EDE085E044E0FFE7AE
:108C100005EBC000BAF80230426804EB440000EBF8
:108C2000C40108EB41001630E1A103F0ABFCF87879
:108C30000128E5D1F87C611C8842E1D10123122290
:108C40000A21FEF706F9BAF802106420B1FBF0F031
:108C5000B88464230122D44903200096FBF76CFEFC
:108C6000B88C6421484380B2AAF802000799884270
:108C700002D8AAF8040001E0AAF804109AF801202A
:108C80005146042ABCD10A22B0FBF2F08880584534
:108C9000B6D2AAF804B0B9E105EBC000099B42685E
:108CA00004EB440000EBC40108EB41001630BCA10A
:108CB00003F068FCF8780128A2D1F87C611C884296
:108CC0009ED1012312220921FEF7C3F89AF8010070
:108CD000B88400960022B4490420089BFBF72CFEC0
:108CE000B88CB24AC1B28AF801109AF8000032F882
:108CF00010302A3AAAF80A3032F810305246AAF850
:108D000008300229C7D111460328C4D2A74A423AE3
:108D100032F81000488179E19AF80110042902D054
:108D2000012928D00AE0BAF802200A21B2FBF1F1A9
:108D3000AAF80410594501D2AAF804B0BAF80420E0
:108D40004FF47A71B2FBF1F301FB13226421B2FB01
:108D5000F1F105EBC0000091426804EB440000EB28
:108D6000C40108EB4100163094A103F00BFCF87825
:108D700001280FD04AE105EBC000426804EB440033
:108D800000EBC40108EB41001630AFF6E42103F01C
:108D9000F9FBECE7F87C611C8842BCD19AF8011021
:108DA00001291CD004291AD0012312220E21FEF71A
:108DB00050F86420BAF80410BBFBF0F2B1FBF0F1FC
:108DC000B98407990096B1FBF0F377490520FBF7CA
:108DD000B3FDB88C64214843AAF8040016E1FE7084
:108DE0000C20F87116E19AF80110F1B104291CD099
:108DF000BAF806204FF47A71B2FBF1F301FB1322AB
:108E00000A21B2FBF1F105EBC0000091426804EBCE
:108E1000440000EBC40108EB410016306BA103F0E5
:108E2000B1FBF87801280FD0F0E005EBC0004268F4
:108E300004EB440000EBC40108EB41001630AFF630
:108E4000983103F09FFBECE7F87C611C884291D1DC
:108E50009AF801100029C2D00429C0D0012312229F
:108E60000C21FDF7F6FFBAF806003221B0FBF1F055
:108E7000B884142301224C4906200096FBF75CFDC0
:108E8000B98C32204143AAF80610EBE39AF801109E
:108E9000022913D19AF80020032A0FD305EBC00052
:108EA0009AF80C30426804EB440000EBC40108EB74
:108EB0004100163049A103F065FB0CE005EBC00052
:108EC000426804EB440000EBC40108EB410016309B
:108ED00045A103F057FBF8780128A5D1F87C611C67
:108EE0008842A1D19AF80120022A7FF478AF9AF83B
:108EF00000100329FFF473AF012312220C21FDF7A8
:108F0000A8FF9AF80C00B8840A23012226490720FA
:108F10000096FBF711FDB88C8AF80C00A2E39AF8D2
:108F20000110022913D19AF80020032A0FD305EB70
:108F3000C0009AF80D30426804EB440000EBC40115
:108F400008EB410016302BA103F01CFB0CE005EBF5
:108F5000C000426804EB440000EBC40108EB410090
:108F6000163021A103F00EFBF87801288DD1F87C92
:108F7000611C884289D19AF80120022A47D19AF8C7
:108F80000010032943D3012312220C21FDF761FFB6
:108F90009AF80D00B8843C230122034908202FE0F1
:108FA00025732573000000000401002084E20008FE
:108FB0002573202535646D4168000000257320204D
:108FC00020202531642E25316441000025732020A6
:108FD000202531642E253032644100002573202085
:108FE000202025326400000025732020204F4646B3
:108FF000000000002573202532646D696E000000BA
:109000000096FBF799FCB98C8AF80D102AE30C2026
:10901000F871FE704FF0010924E39AF8011002295B
:1090200018D19AF80020032A14D39AF80E1009B127
:10903000FAA300E0FBA305EBC000426804EB440088
:1090400000EBC40108EB41001630AFF6FC5103F011
:1090500099FA0CE005EBC000426804EB440000EB19
:10906000C40108EB41001630F0A103F08BFAF87848
:109070000128CBD1F87C611C8842C7D19AF8012025
:10908000022AC4D19AF800100329C0D30123122266
:109090000C21FDF7DEFE9AF80E00B88401230022B1
:1090A000E54909200096FBF747FCB98C8AF80E10B9
:1090B000D8E205EBC000BAF81030426804EB440077
:1090C00000EBC40108EB41001630DCA103F05AFAB2
:1090D000F87801289AD1F87C611C884296D1012346
:1090E00012220E21FDF7B5FEBAF81000B8840F2346
:1090F0000322D1490A200096FBF71EFCB98CAAF87E
:109100001010AFE205EBC000BAF81230426804EB71
:10911000440000EBC40108EB410000F116001BB154
:10912000C9A103F02FFA02E0C0A103F02BFAF878EE
:109130000128BDD1F87C611C8842B9D101231222DB
:109140000D21FDF786FEBAF812100A20B1FBF0F0EF
:10915000B8841E230022B8490B200096FBF7ECFBD5
:10916000B88C00EB80004000AAF812007AE2BAF84E
:10917000121081B105EBC000426804EB440000EB23
:10918000C40108EB41001630B2A103F0FBF9F878F6
:1091900001281AD066E2BAF814204FF47A71B2FBB3
:1091A000F1F301FB13220A21B2FBF1F105EBC00040
:1091B0000091426804EB440000EBC40108EB41005D
:1091C0001630A6A103F0DEF9E1E7F87C611C8842C5
:1091D00097D1BAF8121000297FF401AE01231222B0
:1091E0000D21FDF736FEBAF814100A20B1FBF0F09D
:1091F000B8849123822290490C200096FBF79CFBB7
:10920000B88C00EB80004000AAF814002AE2BAF8FB
:1092100008204FF47A71B2FBF1F301FB13220A210B
:10922000B2FBF1F105EBC0000091426804EB440091
:1092300000EBC40108EB410016308BA103F0A2F94A
:10924000F87800E054E1012890D1F87C611C884254
:109250008CD19AF80110012908D0032906D00229DF
:10926000BAD19AF800100329FFF4B9AD01231222F4
:109270000D21FDF7EEFDBAF808100A20B1FBF0F061
:10928000B8840096DDE905326B490D20FBF754FBED
:10929000B88C00EB80004000AAF80800E2E19AF8E0
:1092A00001205146022A06D10A78032A03D2724BC2
:1092B00033F812204A81BAF80A204FF47A71B2FBCF
:1092C000F1F301FB13220A21B2FBF1F105EBC0001F
:1092D0000091426804EB440000EBC40108EB41003C
:1092E000163066A103F04EF9F87801288ED1F87C8B
:1092F000611C88428AD19AF8011001293FF46FADB0
:10930000022905D19AF80010032900E052E0ABD3FE
:10931000012312220D21FDF79CFDBAF80A100A2044
:10932000B1FBF0F0B8840096DDE9033242490E202B
:10933000FBF702FBB88C00EB80004000AAF80A00A3
:1093400090E1BAF816200A21B2FBF1F34F4989796E
:1093500009B17D2100E07C2105EBC000009142684D
:1093600004EB440000EBC40108EB4100163048A1B7
:1093700003F008F9F878012890D1F87C611C884244
:109380008CD1012312220E21FDF763FDBAF81610CD
:109390000A20B1FBF0F0B8840096DDE901322649DD
:1093A0000F20FBF7C9FAB88C00EB80004000AAF848
:1093B000160057E105EBC000BAF81830426804EB1C
:1093C000440000EBC40108EB41000A2B00F1160039
:1093D00003D233A103F0D6F802E034A103F0D2F8AF
:1093E000F878012819D1F87C611C884215D1012335
:1093F00012220C21FDF72DFD2F48007896285DD212
:10940000BAF81800B8844FF4347309220A491020BE
:109410000096FBF791FAB98C67E068E020433E4480
:109420003E430000202020443E43000025732020BE
:1094300020204F4646000000040100202573202014
:1094400020202532646D5600257320202533646D5D
:1094500041000000257320204F464600257325312A
:10946000642E253032645600257320202025316477
:109470002E2530326456000042E200082573202079
:1094800020202531642E253032645600400B002008
:109490002573202020202025336425630000000050
:1094A00025732020202020204F46460025732020B1
:1094B000202533644D696E0009000020BAF81810A9
:1094C0000A20B1FBF0F0B88448230022FE49202096
:1094D0000096FBF731FAB88C00EB80004004000CDA
:1094E000AAF81800092802D20921AAF81810B9E030
:1094F000397B09B1F54B01E0F44B1B1D05EBC000B6
:10950000426804EB440000EBC40108EB4100163054
:10951000EFA103F037F8F878012868D1F87C611CD6
:10952000884264D1E84F012312220F21243FFDF726
:1095300090FC387BB8840120034600900022E24969
:109540001120FBF7F9F9B88C3873E34F3878082805
:109550004DD1E248C179E24830F811000521FBF70E
:1095600097FFD9483E702438C670007BF0B3D648C8
:10957000243800270673D948D34938442439407821
:109580008871C7EBC70101EB8102D649C0EBC0006F
:1095900001EBC20101EB80001C22D34903F032F938
:1095A0007F1CFFB2042FE6D3C748CC492438427948
:1095B000114449788171CD49CD4802F0E3FFCC4890
:1095C000CCA1163002F0DEFFC948C8492C3002F0A9
:1095D000D9FFC748C549423002F0D4FF00231A46DC
:1095E00019460120FDF75BFC002301E018E039E09B
:1095F0001A4619460220FDF752FC00231A46194666
:109600000320FDF74CFC00231A4619460420FDF701
:1096100046FC0220FDF734FBC820FDF739F91CE0B9
:10962000A94A243A5079032802D2401C507100E024
:109630005671AA4851790844C1EBC1014078907134
:1096400001EB8102A749C0EBC00001EBC20101EBB5
:1096500080011C22A44803F0D5F89B482438867466
:10966000C6740675641CE4B2042CFFF4C9A9964CB8
:10967000243CE078B8BB0021012312220846FDF704
:109680000EFC00231A4619460120FDF708FC0023B2
:109690001A4619460220FDF702FC00231A46194615
:1096A0000320FDF7FCFB00231A4619460420FDF7B2
:1096B000F6FBE07CA084042301228349122000965B
:1096C000FBF73AF9A08C0123C0B2E074A17C12220E
:1096D000014421750021FDF7E2FBE07C042803D062
:1096E000214601280DD016E08748017899B106700F
:1096F000217D627D204691420DD2817C491CA1745E
:1097000009E08248027832B10670087D012802D94A
:10971000887C401EA074704D2878012802D008284B
:1097200025D047E06D48C1796D4830F8110005211A
:10973000FBF7AEFE7648214606702E70E07890B1B9
:10974000CE704879C0EBC00000EB8002654800EBAA
:10975000C202A079C0EBC00002EB80011C2262486B
:1097600003F050F826E08E74CE74267522E05B4834
:10977000C1795B4830F811000521FBF789FE2E7096
:10978000E0782146401CC0B2E070022812D3CE70AF
:1097900048795549C0EBC00000EB8002514800EB0E
:1097A000C202A079C0EBC00002EB80001C2203F0D3
:1097B00029F802E0B9F1000F06D0E07C042806D0B9
:1097C000401CE074524806700BB0BDE8F08F207D5D
:1097D000617D8842F6D2A07C401CA074F2E72DE99E
:1097E000FF4705464B4800EB45100078002869D03C
:1097F00035491431485D401CC0B24855082862D92B
:10980000002048554FF48061434803F072F87C22F1
:1098100007211420FDF738F900217F220846FDF7C3
:1098200033F9C5EBC50000EB05113C483C2400EBC7
:1098300081024FF46166B2F85230B3FBF4F004FBDE
:109840001031B3FBF6F006FB1033B3FBF4F4968B48
:109850004FF47A72B6FBF2F302FB13620A26B2FBF4
:10986000F6F2CDE90020CDE9024121486A1C2CA185
:10987000163802F087FE1E4A0021163A0120FDF735
:109880006CF9022203233D211046FDF722FB3D2304
:109890007C2219460220FDF71CFBDFF82C90DFF834
:1098A000A080C5EB0517002409F1020908EBC706E3
:1098B000315D41B119F8050028B1012853D0401E8F
:1098C000A0423FE055E048E0040100202882000863
:1098D000257320202025730003000020400B00206A
:1098E00048E20008F00400205E120020A87300087F
:1098F000060C00202020436F7079204461746120A1
:109900004F6B2120202000000700002008000020CD
:109910000F000020500900206D0C0020D00900200D
:10992000532531643A2531642E2530326476202067
:109930005B2531643A253032643A253032645D006B
:109940007E10002005DD3019221D4378E01CFDF754
:10995000C0FA641CE4B2782CAAD304B0FD48BDE878
:10996000F047FDF76CB818F837100320FDF7A1FA9F
:10997000EFE7BDE8FF872DE9F04FF7480024DFF857
:10998000DC9300790A26F64D8BB0A3464FF47A7A21
:10999000032855D2F348F04FDFF8CC83C379F3485E
:1099A0003C370178F2480278F24890F800C018F885
:1099B0000400904245D1BCF1320F42D9DFF8A883B0
:1099C000052108F1120838F81300FBF761FDE249A0
:1099D000E74A00204C711070E44A107009EB441201
:1099E00038551378012B22D0C822CA7203220A717B
:1099F000E14AC8701070C4EBC40202EB0413DF4AE2
:109A000002EB8302D070D748DD4A20444078887149
:109A1000C4EBC40101EB810102EBC101C0EBC0004A
:109A200001EB80011C22D74802F0ECFE95E010709B
:109A30000871CC48C17938F811000A21FBF728FDDC
:109A400061E0884202D1012038555CE099BB385D65
:109A500088B300203855C04F6421DFF8208378791F
:109A6000B8737C71F972C4EBC40101EB041118F8EE
:109A700021203AB908EB8101497819B909EB441161
:109A8000097881B1B8480521123030F81300FBF78E
:109A9000FFFCB94800210170387902281CD020B1A0
:109AA000012809D00DE0787136E0B974F974397580
:109AB0000120387105E021E0B87B7A79904200D12D
:109AC00039717879C0EBC00202EB001208EB820317
:109AD000DC7814B13971D97076E618F8222092B189
