:020000020000FC
:10000000020ACEE709F608DFFA8046E709F208DFC0
:10001000FA803E88828C83E709F0A3DFFA8032E31E
:1000200009F608DFFA8078E309F208DFFA807088C1
:10003000828C83E309F0A3DFFA806489828A83E0FB
:10004000A3F608DFFA805889828A83E0A3F208DFEA
:10005000FA804C80D280FA80C680D4806980F28099
:1000600033801080A680EA809A80A880DA80E280BF
:10007000CA803389828A83ECFAE493A3C8C582C814
:10008000CCC583CCF0A3C8C582C8CCC583CCDFE97E
:10009000DEE7800D89828A83E493A3F608DFF9EC1A
:1000A000FAA9F0EDFB2289828A83ECFAE0A3C8C5A5
:1000B00082C8CCC583CCF0A3C8C582C8CCC583CCCC
:1000C000DFEADEE880DB89828A83E493A3F208DF3B
:1000D000F980CC88F0EF60010E4E60C388F0ED240B
:1000E00002B4040050B9F582EB2402B4040050AF0E
:1000F000232345822390005373F8BB010DE5822929
:10010000F582E5833AF583E8F0225006E92582C8B6
:10011000F622BBFE05E92582C8F222BC000BBE0018
:1001200029EF8DF084FFADF022E4CCF875F008EFF4
:100130002FFFEE33FEEC33FCEE9DEC984005FCEE19
:100140009DFE0FD5F0E9E4CEFD22EDF8F5F0EE844A
:1001500020D21CFEADF075F008EF2FFFED33FD400F
:1001600007985006D5F0F222C398FD0FD5F0EA2289
:1001700090040EEEF0A3EFF0A3EBF0A3EAF0A3E9F6
:10018000F0900413E0FF14F0EF603C90040EE0FEEA
:10019000A3E0FF7C007D0A12011BA3E0FBA3E0FAB1
:1001A000A3E0F9A3E0F582758300ED1200F9900455
:1001B0000EE0FEA3E0FF7C007D0A12011B90040EFE
:1001C000EEF0A3EFF080BA22EF1F70011E144E6014
:1001D00027000000000000000000000000000000F8
:1001E000000000000000000000000000000000000F
:1001F00000000000000080D02275BA1F75E8802240
:10020000FFFFFFFFFFFF00000000000000000000F4
:1002100000000000000000000000000000000000DE
:1002200000000000000000000000000000000000CE
:1002300000000000000000000000000000000000BE
:1002400000000000000000000000000000000000AE
:1006000000000000000000000000000090000274E4
:10061000A0F0A3E4F0A374E0F0A3E4F0A3F0A3F04F
:10062000FF78087C007D017BFF7A0279067E041248
:1006300000D378087C047D017BFF7A0679067E0072
:100640007F031200D3780B7C047D017BFF7A06794F
:10065000097E007F031200D39004087402F0A37493
:10066000E7F0A374E1F0E4FEFFE4900006F0A3F0ED
:10067000900006E0FCA3E0FDC3EC9402503890002B
:1006800002E0FAA3E0F5828A83E493FB74082DF577
:100690008274003CF583EBF0900003E004F07006F8
:1006A000900002E004F0900007E004F070C29000B7
:1006B00006E004F080BA758F0375B7A575B7F190A1
:1006C0000004E0FCA3E0F5828C83E4F0F58F900059
:1006D00006F0A3F0900006E0FCA3E0FDC3EC94025A
:1006E0005043758F0175B7A575B7F174082DF58264
:1006F00074003CF583E0FD900004E0FAA3E0F5828D
:100700008A83EDF0E4F58F900005E004F070069028
:100710000004E004F0900007E004F070B7900006D9
:10072000E004F080AFE4F58F0FBF00010EEF640A24
:100730004E6003020669E4900002F0A3F0A3F0A368
:10074000F0A3F0A3F0900006E0FEA3E0FFC3EE9458
:10075000045060900002E0FCA3E0F5828C83E493F7
:10076000FD74082FF58274003EF583EDF0C3EF941D
:1007700003EE9400501F900006E0FEA3E0FF240863
:10078000F58274003EF583E0FD740B2FF582E434AE
:1007900004F583EDF0900003E004F0700690000291
:1007A000E004F0900007E004F0709A900006E00486
:1007B000F08092E4900006F0A3F0900006E0FEA323
:1007C000E0FFFD2408F582E43404F583E0FC7408BE
:1007D0002FF58274003EF583ECF074082DF582E469
:1007E0003404F583E0FF900006E0FCA3E0FD24085C
:1007F000F58274023CF583EFF0740B2DF582E4343E
:1008000004F583E0FF740B2DF58274023CF583EF51
:10081000F0900007E004F07006900006E004F0900D
:100820000006E07004A3E06403708F758F0375B752
:10083000A575B7F1900004E0FEA3E0F5828E83E495
:10084000F0F58F900006F0A3F0900006E0FEA3E024
:10085000FFC3EE94045043758F0175B7A575B7F1CA
:1008600074082FF58274003EF583E0FF900004E0E9
:10087000FCA3E0F5828C83EFF0E4F58F900005E0B7
:1008800004F07006900004E004F0900007E004F02B
:1008900070B7900006E004F080AFE4F58F22E4909A
:1008A0000000F0A3F0120A0C7C087DEEE4FF1209B0
:1008B000327C087DFF7F401209327FDC7E05120A00
:1008C0005812060C7C097D10E4FF1209327C097D68
:1008D000217F40120932900FFB7455F0A374AAF0E7
:1008E000A37455F0A374AAF0A3F043EF102255505F
:1008F0004441544520424F4F542020202020005096
:100900004C4541534520574149542E2E2E2E2E0042
:10091000504C45415345205550444154452053596E
:10092000005354454D20202020202020202020202E
:100930002000900002ECF0A3EDF0120AE490000217
:10094000E0FEA3E0F5828E83E493FF6013120A6F4A
:10095000900003E004F070E5900002E004F080DD18
:1009600022EF54F0FEE5C7540F4EF5C7000000D249
:10097000B7000000C2B70000EFC454F0FFE5C75451
:100980000F4FF5C7000000D2B7000000C2B72275B4
:10099000F13F75F2DF75F38075A41175A50375A796
:1009A000FF75AEF075D4E475D52175D67F75E2C4B8
:1009B000227F28120A857F28120A857F0C120A8559
:1009C0007F01120A857F887E131201C87F06020A02
:1009D00085E4F5D97580CE7590FF75A080F5B0756A
:1009E000C708758CFA758AFA75DD0275FDFF22E479
:1009F000FFFE43B2830FBF00010EBE0BF8BFB8F578
:100A0000E5B230E6FBE4F5B175A90322E4900002FB
:100A1000F0A3F01209D1120A401209B1D2AF53C7A4
:100A2000F77F0F7E00020A58758B80758D44D2BB0C
:100A3000758850758912758E1C75C80475910422CD
:100A4000120A9B120AB0120A281201F9120AED12B8
:100A5000098F1209EF020ADAAD07AC06ED1D70012D
:100A60001C144C60097FE87E031201C880EE2290BE
:100A70000004EFF07F327E001201C8D2B69000046D
:100A8000E0FF020961900004EFF07F327E00120166
:100A9000C8C2B6900004E0FF020961E4FFFE75FFE2
:100AA000800FBF00010EBE01F8BF5EF575EF062294
:100AB00075D84053D9BF75D90475DB1175DC112287
:100AC000E42FFFEE34DC8F82F583E493FF22787FFE
:100AD000E4F6D8FD75810702089E75B82075E6908A
:100AE00075A82822EF547F4480FF020A8575D1073C
:100AF00022FFFFFFFFFFFFFFFFFFFFFFFFFFFFFFE3
:10A00000E59620E7FB75960EE4F597E59620E7FBCD
:10A01000759691E59620E7FB859732E518B4050D16
:10A02000E59620E7FBE4F596850F97F518E53230C5
:10A03000E20EE59620E7FB759611E4F597F51822F8
:10A04000E53230E419E59620E7FB7596117597081F
:10A05000E59620E7FB759611759780E4F518E518ED
:10A06000600302E143E53220E00302E1437B007A32
:10A0700000790C7D087C007F2012EF11E50FFE7C3B
:10A0800000E4250EF50FEC3EF50EE511FEE425107B
:10A09000F511EC3EF510E513FEE42512F513EC3E48
:10A0A000F512E50C547F64217037E50D24FE601B2A
:10A0B00014602224FA600F14601614601D240A70C4
:10A0C0001E12EFE3807D12F03E807812F20780735B
:10A0D00012F160806E12F208806912F209806480C9
:10A0E0005FE50DB40C00505890E0EFF8282873029B
:10A0F000E11302E11802E14002E11D02E14002E148
:10A100002202E12702E14002E12C02E13102E136C4
:10A1100002E13B12E6B9802B12EAC1802612E968FF
:10A12000802112ED9A801C12E280801712EB998038
:10A130001212E9DD800D12ECB5800812EF80800369
:10A1400012F0E9E5186401600302E1D7E53230E17D
:10A150000302E1D7E59620E7FB759691E59620E7A7
:10A16000FB859732E53230E40320E06B753202C3A1
:10A17000E5179440E5169400AB09AA0AA90B402DF7
:10A180007D407C007F2012EE1A7440250BF50BE415
:10A19000350AF50A74C02517F51774FF3516F5163C
:10A1A00074402515F515E43514F514800FAD17AC82
:10A1B000167F2012EE1A433208E4F518E515B513A0
:10A1C0000BE514B51206433208E4F518E59620E7CE
:10A1D000FB759611853297E5186402600302E27FF1
:10A1E000E59620E7FB759691E59620E7FB8597328B
:10A1F000E53220E00302E27F753240C3E517944068
:10A20000E5169400AB09AA0AA90B402D7D407C00FD
:10A210007F2012EF117440250BF50BE4350AF50A87
:10A2200074C02517F51774FF3516F51674402515FB
:10A23000F515E43514F514800FAD17AC167F201218
:10A24000EF11433208E4F518E515B5130BE514B525
:10A250001206433208E4F518E5187012E50DB4094A
:10A260000DAB09AA0AA90B12E74FFF12F0CEE518B1
:10A2700064046005E59620E7FB7596118532972208
:10A28000E50E24DF700302E34614700302E35B244F
:10A2900021B40500400302E36C90E2A775F003A42B
:10A2A000C58325F0C5837302E2B602E2C402E2E58B
:10A2B00002E30A02E31A7509FF750AE4750BA5901B
:10A2C000E4A580527509FF750AE4750BB790E4BAEE
:10A2D000E493FE90E4B9E4937C002400F517EC3E8F
:10A2E000F51602E36FE50FD394024002807EE50F7E
:10A2F00075F003A4243AF8860308E6FA08E6F98B19
:10A30000098A0AF50B12E74F804A7509FF750AE4BE
:10A31000750BC090E4C0E493803AE50FB4811075EA
:10A3200009FF750AE4750BD290E4D2E4938025E529
:10A330000FB401107509FF750AE4750BD990E4D9C3
:10A34000E493801080267509FF750AE4750BC990A7
:10A35000E4C9E493751600F51780147509FF750AB2
:10A36000E4750BE075160075171B800312F0E9E524
:10A370000E64016017E50E64026011E50E6403606F
:10A380000BE50E64046005E50EB40514C3E51395F2
:10A3900017E49516500AE5127006851216851317F4
:10A3A000E51864046013E59620E7FB759611759730
:10A3B00040751801E4F514F51522900021E0752A86
:10A3C00000F52BE52B752B00F52AA3E0252BF52BAB
:10A3D000E4352AF52AA3E0FFE48F29F528F527F5CF
:10A3E00026AF29AE28AD27AC26780812E7C88F29FA
:10A3F0008E288D278C26A3E0FFE4FCFDFEE5292FA7
:10A40000F529EE3528F528ED3527F527EC3526F525
:10A4100026AF29AE28AD27FC780812E7C88F298E11
:10A42000288D278C26A3E0FFE4FCFDFEE5292FF50F
:10A4300029EE3528F528ED3527F527EC3526F526C4
:10A44000AF29AE28AD27FC780812E7C88F298E28DF
:10A450008D278C26A3E0FFE4FCFDFEE5292FF529DE
:10A46000EE3528F528ED3527F527EC3526F526E4D9
:10A47000F521F522F52CF52DF524F525FF74202F77
:10A48000F582E43400F583E0FE74002FF582E434B5
:10A4900000F583EEF00FBF20E4300205E4FF02EA8E
:10A4A0005212F06A22120110010000004000000167
:10A4B00000000001020001090229000101008020C2
:10A4C0000904000002030102000921010100012228
:10A4D0001B000705810320000A0705010320000A6D
:10A4E00005010900A101150025FF19012908952082
:10A4F00075088102190129089102C0040309042A80
:10A5000003530049004C00490043004F004E002017
:10A51000004C00410042004F005200410054004FE7
:10A520000052004900450053003803430038003012
:10A5300000350031004600330078007800200044E8
:10A54000006500760065006C006F0070006D0065AE
:10A55000006E007400200042006F00610072006411
:10A5600000E4F52FF530C3E5259522E5249521502B
:10A570002374212530F582E43400F583E0FF0525BE
:10A58000E525AC2470020524142440F58274003CB7
:10A59000F583EFF00530E5307002052F641F452F7D
:10A5A00070C4E52565227004E5246521705FF52FF0
:10A5B000F530C3E5309522E52F9521504DE4F53176
:10A5C000F532E5302532FFE52F3531FE74402FF5A9
:10A5D0008274003EF583C083C082E0FD74802FF555
:10A5E0008274003EF583E0FFED6FD082D083F005EA
:10A5F00032E532700205316440453170C574802502
:10A6000030F530E4352FF52F80A812ED0822E4F55F
:10A6100034F533F532F531FBFAF52FF530C3E5307B
:10A62000952BE52F952A502FEB2530F582EA352F13
:10A63000F583E493FFE4FCFDFEE5342FF534EE35BD
:10A6400033F533ED3532F532EC3531F5310530E5A2
:10A650003070CA052F80C69000007404F0AF29AE98
:10A6600028AD27AC26AB34AA33A932A831C312E7F0
:10A67000B7700790000104F08005E4900001F075C8
:10A680002F00753002AF3074202FF582E43400F5CE
:10A6900083E0FE74002FF582E43400F583EEF005CC
:10A6A00030E5307002052F6420452F70D830020548
:10A6B000E4FF02EA5212F06A22E50E700EE50F7016
:10A6C0000AE5127006E5136402600312F0E9E50C76
:10A6D000247F601114602824027057E5107053E540
:10A6E000116011804DE508B40408E5107004E5110F
:10A6F0006002803E7509FF750AF1750BFE8029E541
:10A7000008B40404E51060028028E511B48121E555
:10A7100019B4030B7509FF750AF1750BFC800975F7
:10A7200009FF750AF1750BFE751600751702800595
:10A73000800012F0E9E51864046013E59620E7FB59
:10A74000759611759740751801E4F514F51522BB3F
:10A75000010689828A83E0225002E722BBFE02E3DF
:10A760002289828A83E49322BB010CE58229F58247
:10A77000E5833AF583E0225006E92582F8E622BB1C
:10A78000FE06E92582F8E222E58229F582E5833A90
:10A79000F583E49322F8BB010DE58229F582E58378
:10A7A0003AF583E8F0225006E92582C8F622BBFE7E
:10A7B00005E92582C8F222EB9FF5F0EA9E42F0E916
:10A7C0009D42F0E89C45F022E8600FEFC333FFEEB6
:10A7D00033FEED33FDEC33FCD8F1228A838982E429
:10A7E00073787FE4F6D8FD75814A02E82802E86DA7
:10A7F000E493A3F8E493A34003F68001F208DFF4A6
:10A800008029E493A3F85407240CC8C333C4540F1D
:10A810004420C8834004F456800146F6DFE4800BF0
:10A82000010204081020408090F011E47E01936042
:10A83000BCA3FF543F30E509541FFEE493A360011D
:10A840000ECF54C025E060A840B8E493A3FAE49387
:10A85000A3F8E493A3C8C582C8CAC583CAF0A3C835
:10A86000C582C8CAC583CADFE9DEE780BE752E612E
:10A87000E4F5D9900FFBE0B45517A3E0B4AA12A3F6
:10A88000E0B4550DA3E0B4AA08A3E0B45503120246
:10A8900003C2AF12F1727F887E1312EFB2900FFBEA
:10A8A000E0B45517A3E0B4AA12A3E0B4550DA3E099
:10A8B000B4AA08A3E0B4AA0312F184900FFBE0B499
:10A8C000AA17A3E0B4AA12A3E0B4550DA3E0B4AA5A
:10A8D00008A3E0B4550312F191D297D2960000007C
:10A8E0000020970302F18420960302F19112F103F4
:10A8F00022900021E0752C00F52DE52D752D00F539
:10A900002CA3E0252DF52DE4352CF52CA3E07521A5
:10A9100000F522E522752200F521A3E02522F5228B
:10A92000E43521F521E4FF74202FF582E43400F5AD
:10A9300083E0FE74002FF582E43400F583EEF00F1F
:10A94000BF05E49000057401F07F1A900006E4F062
:10A95000A3DFFC7F20300207E4FF12EA52800312DB
:10A96000F06AE4F524F52522E508B40418E50C6046
:10A970004C64016048E50E7044E5107040E51270CB
:10A980003CE51360028036E50C64027030E50F7020
:10A990002CE51164816006E51164027020E511B4B4
:10A9A000811EE59620E7FB75960E759701E59620CA
:10A9B000E7FB759611759710751903800312F0E97E
:10A9C000E59620E7FB75960EE4F597E518640460BC
:10A9D0000BE59620E7FB75961175974822E508640C
:10A9E00002601FE50C701BE5107017E5117013E590
:10A9F00012700FE513700BE50E7007E50FD394018D
:10AA0000400512F0E98039E50FD39400402C750819
:10AA100004E4F519E59620E7FB75960E759701E5B8
:10AA20009620E7FB759612759704E59620E7FB756F
:10AA3000960EE4F59712F1F6800675080375190372
:10AA4000E5186404600BE59620E7FB759611759791
:10AA50004822E59620E7FB75960E759701E596204E
:10AA6000E7FB759691E59620E7FBAE97E519B403F1
:10AA70000CE59620E7FB75961175971022E5197085
:10AA80003F751901EE30E50BE59620E7FB75961151
:10AA9000759740EE30E20BE59620E7FB759611E4E2
:10AAA000F59712EED4E547FD7C00AB48AA49A94AC8
:10AAB0007F2112EDDBE59620E7FB75961175970176
:10AAC00022E508B40418E50C604664016042E50E16
:10AAD000703EE510703AE5127036E5136002803082
:10AAE000E50C6402702AE50F7026E5116481702080
:10AAF000E511B4811EE59620E7FB75960E7597016A
:10AB0000E59620E7FB759611759740E4F5198003EB
:10AB100012F0E9E59620E7FB75960EE4F597E51847
:10AB20006404600BE59620E7FB7596117597482243
:10AB3000E4F532E59620E7FB75960E759701E596EC
:10AB400020E7FB759694E59620E7FBAF97E519B4EF
:10AB5000030CE59620E7FB75961475972022EF30DD
:10AB6000E60BE59620E7FB75961475978012F1AB1E
:10AB7000E543FD7C00AB44AA45A9467F2112EF11B5
:10AB8000AB44AA45A94612E74FFF12F0CEE5962046
:10AB9000E7FB759614E4F59722E50CB4801AE50EF0
:10ABA0007016E50F7012E510700EE511700AE512CF
:10ABB0007006E5136401600512F0E98028E508B429
:10ABC000040F7509FF750AF1750BFC7516007517F2
:10ABD00001E508B4030F7509FF750AF1750BFE75E1
:10ABE0001600751701E51864046013E59620E7FB6D
:10ABF000759611759740751801E4F514F51522E561
:10AC00009620E7FB759686E59620E7FB85972FE56E
:10AC10009620E7FB759682E59620E7FB859730E561
:10AC20009620E7FB759684E59620E7FB859731E54E
:10AC30002F30E10312F1CEE52F30E20312F11DE5D2
:10AC40003030E00312E000E53030E10312F1F6E5C8
:10AC50003130E10312EB30E52F30E00312F1D7225F
:10AC6000E4FFFE900000F0A3740BF08F828E83E46B
:10AC700093900002F08F828E83740193900003F012
:10AC80008F828E83740293900004F07F0574202FCE
:10AC9000F582E43400F583E0FE74002FF582E4349D
:10ACA00000F583EEF00FBF20E4300205E4FF02EA76
:10ACB0005212F06A22E5086404701FE50CB4811A90
:10ACC000E50E7016E50F7012E510700EE511700AB2
:10ACD000E5127006E5136401600512F0E9800F7556
:10ACE00009FF750AF1750BFE751600751701E51859
:10ACF00064046013E59620E7FB759611759740751F
:10AD00001801E4F514F51522AE2CAF2D758F0375DF
:10AD1000B7A575B7F18F828E83E4F0F58FFDFCC384
:10AD2000ED9522EC95215028758F0175B7A575B763
:10AD3000F174402DF58274003CF583E08F828E83A0
:10AD4000F0E4F58F0FBF00010E0DBD00010C80CFA8
:10AD5000E4F58F22E59620E7FB759601759708E5E7
:10AD60009620E7FB759607759707E59620E7FB7534
:10AD70009609759707E59620E7FB75960B7597077B
:10AD800075D7E0E59620E7FB75960F759780E596F9
:10AD900020E7FB75960175970122E50C7019E51007
:10ADA0007015E5117011E512700DE5137009E50ECF
:10ADB0007005E50F30E70312F0E9751805E50F603F
:10ADC000057508038003750802E5186404600BE547
:10ADD0009620E7FB759611759748228C358D368B3A
:10ADE000378A388939E5364535602EE59620E7FB08
:10ADF0008F96E4FFFEC3EF9536EE9535501BAB37CB
:10AE0000AA38A9398F828E8312E768F597E59620D4
:10AE1000E7FB0FBF00010E80DC228C338D348B35B5
:10AE20008A368937E5344533602EE59620E7FB8F77
:10AE300096E4FFFEC3EF9534EE9533501BAB35AA75
:10AE400036A9378F828E8312E768F597E59620E75B
:10AE5000FB0FBF00010E80DC22300035C2009000E5
:10AE600020E014601514601714601914601B14603E
:10AE70001D2405701C12EC60801712E3BA801212B8
:10AE8000E8F1800D12E561800812E60E800312F1F0
:10AE900003300102C201228F33E4F534E53425E0AA
:10AEA00025E024E0F582E434F1F583E493B5331A28
:10AEB000E53425E025E024E1F582E434F1F58374FE
:10AEC0000193FA740293F902E7DB0534E534D39475
:10AED0000140C9228F35E4F536E53625E025E0242A
:10AEE000E0F582E434F1F583E493B5351AE53625CF
:10AEF000E025E024E1F582E434F1F583740193FA6E
:10AF0000740293F902E7DB0536E536D3940140C9B4
:10AF1000228B338A348935ED4C602D8F964396C051
:10AF2000E4FFFEC3EF9DEE9C501BE59620E7FBABD4
:10AF300033AA34A9358F828E83E59712E7950FBF28
:10AF400000010E80DEE4F59622E4FFFEFDFC12F126
:10AF5000C3BF40030E8002E4FEBF5E030D8002E427
:10AF6000FDBD0503D20022BE05E4E4FC12F1C3746A
:10AF7000202CF582E43400F583EFF00CBC20ED22A8
:10AF8000E50CB40118E5127014E5137010E50E70AD
:10AF90000CE50F7008E5107004E511600312F0E98C
:10AFA000E5186404600BE59620E7FB75961175972C
:10AFB0004822EF1F70011E144E60270000000000A1
:10AFC0000000000000000000000000000000000081
:10AFD0000000000000000000000000000000000071
:10AFE00080D022AF0F12EE9785480985490A854A1D
:10AFF0000B751600854717E51864046013E5962065
:10B00000E7FB759611759740751801E4F514F51571
:10B0100022093AFFE4FBFFE4FFFFE52903180003E0
:10B0200003C100C101C102022A0000022100000484
:10B030002600000000022C0000022400000012F193
:10B04000AB85440985450A85460B8512168513177D
:10B05000E51864046013E59620E7FB759611759773
:10B0600040751802E4F514F51522E4F535F536FEC1
:10B070007F4012F1B80EBE05F7E4FE74002EF58293
:10B08000E43400F583E0FF12F1B80EBE20ED227526
:10B09000F13F75F2DF75F38075A41175A50375A7EF
:10B0A000FF75AEF075D4E475D52175D67F75E2C411
:10B0B00022E4FFFE43B2830FBF00010EBE0BF8BFB8
:10B0C000B8F5E5B230E6FBE4F5B175A903228F339C
:10B0D000E425E025E024E5F582E434F1F58374010C
:10B0E00093FA740293F902E7DBE59620E7FB759685
:10B0F0000EE4F597E59620E7FB7596117597207598
:10B10000180422900FFB7455F0A374AAF0A3745591
:10B11000F0A374AAF0A37455F043EF10227508024F
:10B12000E59620E7FB759601759701E4F51875190A
:10B1300003751A032243A50275E30175B43C75B586
:10B14000F675D21075AC4375E56C22E4FFFE75FF11
:10B15000800FBF00010EBE01F8BF5EF575EF06223D
:10B16000E5186404600BE59620E7FB75961175976A
:10B17000482212F14B12F1E812F1EF12F20012F034
:10B180008F02F0B112ED54D20212EBFF12EE598091
:10B19000F812F135C20212EF4912EE5980F87548E3
:10B1A00001754900754A00754720227544017545AF
:10B1B00000754620754320228FD3E5D230E1FB5342
:10B1C000D2FD22E5D230E0FBAFD353D2FE220533CD
:10B1D000E53370020532220533E533700205322271
:10B1E00000FFF19E00FFF20453D9BFE4F5D92275A8
:10B1F0008920758D9822E4F519D201220100000002
:10B2000075C92022D20022222222FFFFFFFFFFFF6A
:00000001FF
